{
  "contractName": "Escrow",
  "abi": [
    {
      "constant": true,
      "inputs": [
        {
          "name": "",
          "type": "address"
        },
        {
          "name": "",
          "type": "uint256"
        }
      ],
      "name": "allUserTransactions",
      "outputs": [
        {
          "name": "",
          "type": "uint256"
        }
      ],
      "payable": false,
      "stateMutability": "view",
      "type": "function",
      "signature": "0x5f670e03"
    },
    {
      "constant": true,
      "inputs": [
        {
          "name": "",
          "type": "uint256"
        }
      ],
      "name": "transactions",
      "outputs": [
        {
          "name": "status",
          "type": "uint8"
        },
        {
          "name": "buyer",
          "type": "address"
        },
        {
          "name": "seller",
          "type": "address"
        },
        {
          "name": "amount",
          "type": "uint256"
        }
      ],
      "payable": false,
      "stateMutability": "view",
      "type": "function",
      "signature": "0x9ace38c2"
    },
    {
      "constant": true,
      "inputs": [],
      "name": "totalTransactions",
      "outputs": [
        {
          "name": "",
          "type": "uint256"
        }
      ],
      "payable": false,
      "stateMutability": "view",
      "type": "function",
      "signature": "0xb9a60038"
    },
    {
      "constant": false,
      "inputs": [
        {
          "name": "_id",
          "type": "uint256"
        },
        {
          "name": "_buyer",
          "type": "address"
        },
        {
          "name": "_seller",
          "type": "address"
        },
        {
          "name": "_amount",
          "type": "uint256"
        }
      ],
      "name": "startTransaction",
      "outputs": [],
      "payable": false,
      "stateMutability": "nonpayable",
      "type": "function",
      "signature": "0xb234c49d"
    },
    {
      "constant": false,
      "inputs": [
        {
          "name": "_id",
          "type": "uint256"
        }
      ],
      "name": "fundTransaction",
      "outputs": [],
      "payable": true,
      "stateMutability": "payable",
      "type": "function",
      "signature": "0xaef8a486"
    },
    {
      "constant": false,
      "inputs": [
        {
          "name": "_id",
          "type": "uint256"
        }
      ],
      "name": "confirmItemReceived",
      "outputs": [],
      "payable": false,
      "stateMutability": "nonpayable",
      "type": "function",
      "signature": "0x65e3966a"
    },
    {
      "constant": true,
      "inputs": [
        {
          "name": "_id",
          "type": "uint256"
        }
      ],
      "name": "getTransaction",
      "outputs": [
        {
          "name": "",
          "type": "uint256"
        },
        {
          "name": "",
          "type": "address"
        },
        {
          "name": "",
          "type": "address"
        },
        {
          "name": "",
          "type": "uint256"
        }
      ],
      "payable": false,
      "stateMutability": "view",
      "type": "function",
      "signature": "0x33ea3dc8"
    },
    {
      "constant": true,
      "inputs": [
        {
          "name": "_user",
          "type": "address"
        }
      ],
      "name": "getAllUserTransactions",
      "outputs": [
        {
          "name": "",
          "type": "uint256[]"
        }
      ],
      "payable": false,
      "stateMutability": "view",
      "type": "function",
      "signature": "0x4dd87af7"
    },
    {
      "constant": true,
      "inputs": [
        {
          "name": "_id",
          "type": "uint256"
        }
      ],
      "name": "getTransactionBuyer",
      "outputs": [
        {
          "name": "",
          "type": "address"
        }
      ],
      "payable": false,
      "stateMutability": "view",
      "type": "function",
      "signature": "0x65202ba7"
    },
    {
      "constant": true,
      "inputs": [
        {
          "name": "_id",
          "type": "uint256"
        }
      ],
      "name": "getTransactionSeller",
      "outputs": [
        {
          "name": "",
          "type": "address"
        }
      ],
      "payable": false,
      "stateMutability": "view",
      "type": "function",
      "signature": "0x377aebf8"
    },
    {
      "constant": true,
      "inputs": [
        {
          "name": "_id",
          "type": "uint256"
        }
      ],
      "name": "getTransactionAmount",
      "outputs": [
        {
          "name": "",
          "type": "uint256"
        }
      ],
      "payable": false,
      "stateMutability": "view",
      "type": "function",
      "signature": "0x53d1f1bb"
    },
    {
      "constant": true,
      "inputs": [
        {
          "name": "_id",
          "type": "uint256"
        }
      ],
      "name": "getTransactionStatus",
      "outputs": [
        {
          "name": "",
          "type": "uint256"
        }
      ],
      "payable": false,
      "stateMutability": "view",
      "type": "function",
      "signature": "0x6bbc379d"
    }
  ],
  "bytecode": "0x60806040526000805534801561001457600080fd5b50610edc806100246000396000f3fe6080604052600436106100ba576000357c0100000000000000000000000000000000000000000000000000000000900463ffffffff16806333ea3dc8146100bf578063377aebf81461017b5780634dd87af7146101f657806353d1f1bb1461029c5780635f670e03146102eb57806365202ba71461035a57806365e3966a146103d55780636bbc379d146104105780639ace38c21461045f578063aef8a48614610529578063b234c49d14610557578063b9a60038146105dc575b600080fd5b3480156100cb57600080fd5b506100f8600480360360208110156100e257600080fd5b8101908080359060200190929190505050610607565b604051808581526020018473ffffffffffffffffffffffffffffffffffffffff1673ffffffffffffffffffffffffffffffffffffffff1681526020018373ffffffffffffffffffffffffffffffffffffffff1673ffffffffffffffffffffffffffffffffffffffff16815260200182815260200194505050505060405180910390f35b34801561018757600080fd5b506101b46004803603602081101561019e57600080fd5b8101908080359060200190929190505050610748565b604051808273ffffffffffffffffffffffffffffffffffffffff1673ffffffffffffffffffffffffffffffffffffffff16815260200191505060405180910390f35b34801561020257600080fd5b506102456004803603602081101561021957600080fd5b81019080803573ffffffffffffffffffffffffffffffffffffffff169060200190929190505050610788565b6040518080602001828103825283818151815260200191508051906020019060200280838360005b8381101561028857808201518184015260208101905061026d565b505050509050019250505060405180910390f35b3480156102a857600080fd5b506102d5600480360360208110156102bf57600080fd5b810190808035906020019092919050505061081f565b6040518082815260200191505060405180910390f35b3480156102f757600080fd5b506103446004803603604081101561030e57600080fd5b81019080803573ffffffffffffffffffffffffffffffffffffffff1690602001909291908035906020019092919050505061083f565b6040518082815260200191505060405180910390f35b34801561036657600080fd5b506103936004803603602081101561037d57600080fd5b810190808035906020019092919050505061086f565b604051808273ffffffffffffffffffffffffffffffffffffffff1673ffffffffffffffffffffffffffffffffffffffff16815260200191505060405180910390f35b3480156103e157600080fd5b5061040e600480360360208110156103f857600080fd5b81019080803590602001909291905050506108af565b005b34801561041c57600080fd5b506104496004803603602081101561043357600080fd5b81019080803590602001909291905050506109cc565b6040518082815260200191505060405180910390f35b34801561046b57600080fd5b506104986004803603602081101561048257600080fd5b8101908080359060200190929190505050610a04565b604051808560028111156104a857fe5b60ff1681526020018473ffffffffffffffffffffffffffffffffffffffff1673ffffffffffffffffffffffffffffffffffffffff1681526020018373ffffffffffffffffffffffffffffffffffffffff1673ffffffffffffffffffffffffffffffffffffffff16815260200182815260200194505050505060405180910390f35b6105556004803603602081101561053f57600080fd5b8101908080359060200190929190505050610a81565b005b34801561056357600080fd5b506105da6004803603608081101561057a57600080fd5b8101908080359060200190929190803573ffffffffffffffffffffffffffffffffffffffff169060200190929190803573ffffffffffffffffffffffffffffffffffffffff16906020019092919080359060200190929190505050610b94565b005b3480156105e857600080fd5b506105f1610dae565b6040518082815260200191505060405180910390f35b600080600080610615610e50565b60016000878152602001908152602001600020608060405190810160405290816000820160009054906101000a900460ff16600281111561065257fe5b600281111561065d57fe5b81526020016000820160019054906101000a900473ffffffffffffffffffffffffffffffffffffffff1673ffffffffffffffffffffffffffffffffffffffff1673ffffffffffffffffffffffffffffffffffffffff1681526020016001820160009054906101000a900473ffffffffffffffffffffffffffffffffffffffff1673ffffffffffffffffffffffffffffffffffffffff1673ffffffffffffffffffffffffffffffffffffffff16815260200160028201548152505090508060000151600281111561072957fe5b8160200151826040015183606001519450945094509450509193509193565b60006001600083815260200190815260200160002060010160009054906101000a900473ffffffffffffffffffffffffffffffffffffffff169050919050565b6060600260008373ffffffffffffffffffffffffffffffffffffffff1673ffffffffffffffffffffffffffffffffffffffff16815260200190815260200160002080548060200260200160405190810160405280929190818152602001828054801561081357602002820191906000526020600020905b8154815260200190600101908083116107ff575b50505050509050919050565b600060016000838152602001908152602001600020600201549050919050565b60026020528160005260406000208181548110151561085a57fe5b90600052602060002001600091509150505481565b60006001600083815260200190815260200160002060000160019054906101000a900473ffffffffffffffffffffffffffffffffffffffff169050919050565b80600160028111156108bd57fe5b6001600083815260200190815260200160002060000160009054906101000a900460ff1660028111156108ec57fe5b141515610987576040517f08c379a00000000000000000000000000000000000000000000000000000000081526004018080602001828103825260298152602001807f5472616e73616374696f6e206973206e6f74206177616974696e67206974656d81526020017f2064656c6976657279000000000000000000000000000000000000000000000081525060400191505060405180910390fd5b61099082610db4565b60026001600084815260200190815260200160002060000160006101000a81548160ff021916908360028111156109c357fe5b02179055505050565b60006001600083815260200190815260200160002060000160009054906101000a900460ff1660028111156109fd57fe5b9050919050565b60016020528060005260406000206000915090508060000160009054906101000a900460ff16908060000160019054906101000a900473ffffffffffffffffffffffffffffffffffffffff16908060010160009054906101000a900473ffffffffffffffffffffffffffffffffffffffff16908060020154905084565b8060006002811115610a8f57fe5b6001600083815260200190815260200160002060000160009054906101000a900460ff166002811115610abe57fe5b141515610b59576040517f08c379a00000000000000000000000000000000000000000000000000000000081526004018080602001828103825260238152602001807f5472616e73616374696f6e206973206e6f74206177616974696e67207061796d81526020017f656e74000000000000000000000000000000000000000000000000000000000081525060400191505060405180910390fd5b600180600084815260200190815260200160002060000160006101000a81548160ff02191690836002811115610b8b57fe5b02179055505050565b60806040519081016040528060006002811115610bad57fe5b81526020018473ffffffffffffffffffffffffffffffffffffffff1681526020018373ffffffffffffffffffffffffffffffffffffffff168152602001828152506001600086815260200190815260200160002060008201518160000160006101000a81548160ff02191690836002811115610c2557fe5b021790555060208201518160000160016101000a81548173ffffffffffffffffffffffffffffffffffffffff021916908373ffffffffffffffffffffffffffffffffffffffff16021790555060408201518160010160006101000a81548173ffffffffffffffffffffffffffffffffffffffff021916908373ffffffffffffffffffffffffffffffffffffffff160217905550606082015181600201559050506000808154809291906001019190505550600260008473ffffffffffffffffffffffffffffffffffffffff1673ffffffffffffffffffffffffffffffffffffffff168152602001908152602001600020849080600181540180825580915050906001820390600052602060002001600090919290919091505550600260008373ffffffffffffffffffffffffffffffffffffffff1673ffffffffffffffffffffffffffffffffffffffff16815260200190815260200160002084908060018154018082558091505090600182039060005260206000200160009091929091909150555050505050565b60005481565b60006001600083815260200190815260200160002060010160009054906101000a900473ffffffffffffffffffffffffffffffffffffffff1690508073ffffffffffffffffffffffffffffffffffffffff166108fc60016000858152602001908152602001600020600201549081150290604051600060405180830381858888f19350505050158015610e4b573d6000803e3d6000fd5b505050565b60806040519081016040528060006002811115610e6957fe5b8152602001600073ffffffffffffffffffffffffffffffffffffffff168152602001600073ffffffffffffffffffffffffffffffffffffffff16815260200160008152509056fea165627a7a72305820a1bd005138d6f8e145768f29f86e461be9a48fac6fafd029d980221d65ac2b730029",
  "source": "pragma solidity ^0.5.0;\n\n/**\n* @author Karen Suen\n* @notice A contract for managing trading of funds between buyers and sellers.\n* This contract manages all transactions between buyers and sellers in the\n* marketplace. When a buyer commits to purchasing a listing, a new transaction\n* is created and buyer's purchase funds are held in this Escrow contract until\n* the buyer confirms successful delivery of the item from seller. New transactions\n* are started by creating a new Transaction struct and storing it in the map.\n* Only 1 transaction per listing can be maintained at a time. Minimal safety\n* checks are implemented here to avoid double payments or completing trades\n* before payment is actually received in escrow.\n*/\ncontract Escrow {\n\n    enum Status {AWAITING_PAYMENT, AWAITING_DELIVERY, CONFIRMED} // {0,1,2}\n\n    struct Transaction {\n        Status status;\n        address buyer;\n        address seller;\n        uint amount;\n    }\n\n    uint public totalTransactions = 0;\n    mapping(uint => Transaction) public transactions;\n    mapping(address => uint[]) public allUserTransactions;\n\n    /**\n    * @notice Throws error if transaction is not in AWAITING_PAYMENT status\n    * @param _id Transaction id\n    */\n    modifier isAwaitingPayment(uint _id) {\n        require(\n            transactions[_id].status == Status.AWAITING_PAYMENT,\n            \"Transaction is not awaiting payment\"\n        );\n        _;\n    }\n\n    /**\n    * @notice Throws error if transaction is not in AWAITING_DELIVERY status\n    * @param _id Transaction id\n    */\n    modifier isAwaitingDelivery(uint _id) {\n        require(\n            transactions[_id].status == Status.AWAITING_DELIVERY,\n            \"Transaction is not awaiting item delivery\"\n        );\n        _;\n    }\n\n    /**\n    * @dev Create a new transaction for the given listing, new transactions\n    * always starts in AWAITING_PAYMENT.\n    * @param _id The listing id that will be used for this transaction's id\n    * @param _buyer The buyer address of the listing\n    * @param _seller The seller address that created the listing\n    * @param _amount The transaction amount in Wei\n    */\n    function startTransaction(\n        uint _id,\n        address _buyer,\n        address _seller,\n        uint _amount\n    )\n        public\n    {\n        transactions[_id] = Transaction(Status.AWAITING_PAYMENT, _buyer, _seller, _amount);\n        totalTransactions++;\n\n        // update the list of transactions involving the accounts\n        allUserTransactions[_buyer].push(_id);\n        allUserTransactions[_seller].push(_id);\n    }\n\n    /**\n    * @dev Receives and holds buyer's funds for purchasing a listing and updates\n    * the state of the corresponding transaction.\n    * @param _id The transaction (listing) id to fund\n    */\n    function fundTransaction(uint _id) public payable isAwaitingPayment(_id) {\n        transactions[_id].status = Status.AWAITING_DELIVERY;\n    }\n\n    /**\n    * @dev Buyer confirms delivery of item from seller and escrow funds held\n    * in this transaction is released to the seller. The transaction must be\n    * in the correct state (AWAITING_DELIVERY) to be confirmed\n    * @param _id Transaction id to confirm and release funds\n    */\n    function confirmItemReceived(uint _id) public isAwaitingDelivery(_id) {\n        _releaseFundsToBuyer(_id);\n        transactions[_id].status = Status.CONFIRMED;\n    }\n\n    /**\n    * @dev Returns all information about a transaction as a tuple\n    * @param _id Id of transaction to return\n    * @return Transaction status, buyer address, seller address, transaction amount in Wei\n    */\n    function getTransaction(uint _id) public view returns (uint, address, address, uint) {\n        Transaction memory transaction = transactions[_id];\n        return (\n            uint256(transaction.status),\n            transaction.buyer,\n            transaction.seller,\n            transaction.amount\n        );\n    }\n\n    /**\n    * @dev Return the list of all transaction ids involving the given account\n    * @param _user The account address to retrieve all transactions for\n    * @return A list of transaction ids\n    */\n    function getAllUserTransactions(address _user) public view returns (uint[] memory) {\n        return allUserTransactions[_user];\n    }\n\n    /**\n    * @dev Return the buyer address of given transaction id\n    * @param _id Transaction id to retrieve buyer address of\n    * @return Buyer address\n    */\n    function getTransactionBuyer(uint _id) public view returns (address) {\n        return transactions[_id].buyer;\n    }\n\n    /**\n    * @dev Return the seller address of given transaction id\n    * @param _id Transaction id to retrieve seller address of\n    * @return Seller address\n    */\n    function getTransactionSeller(uint _id) public view returns (address) {\n        return transactions[_id].seller;\n    }\n\n    /**\n    * @dev Return the agreed amount of the given transaction id\n    * @param _id Transaction id to retrieve the agreed amount\n    * @return Transaction amount in Wei\n    */\n    function getTransactionAmount(uint _id) public view returns (uint) {\n        return transactions[_id].amount;\n    }\n\n    /**\n    * @dev Return the current status of the given transaction id\n    * @param _id Transaction id to retrieve status of\n    * return Transaction status\n    */\n    function getTransactionStatus(uint _id) public view returns (uint) {\n        return uint(transactions[_id].status);\n    }\n\n    /**\n    * @dev release payment to seller by transferring correct amount of funds\n    * from escrow contract.\n    */\n    function _releaseFundsToBuyer(uint _id) private {\n        // must convert seller address to payable address to transfer funds\n        address payable seller = address(uint160(transactions[_id].seller));\n        seller.transfer(transactions[_id].amount);\n    }\n\n}\n",
  "sourcePath": "/Users/karen/dapps/project-dapp2/contracts/Escrow.sol",
  "compiler": {
    "name": "solc",
    "version": "0.5.0+commit.1d4f565a.Emscripten.clang"
  },
  "schemaVersion": "3.0.2",
  "updatedAt": "2019-04-27T15:35:59.009Z",
  "devdoc": {
    "author": "Karen Suen",
    "methods": {
      "confirmItemReceived(uint256)": {
        "details": "Buyer confirms delivery of item from seller and escrow funds held in this transaction is released to the seller. The transaction must be in the correct state (AWAITING_DELIVERY) to be confirmed",
        "params": {
          "_id": "Transaction id to confirm and release funds"
        }
      },
      "fundTransaction(uint256)": {
        "details": "Receives and holds buyer's funds for purchasing a listing and updates the state of the corresponding transaction.",
        "params": {
          "_id": "The transaction (listing) id to fund"
        }
      },
      "getAllUserTransactions(address)": {
        "details": "Return the list of all transaction ids involving the given account",
        "params": {
          "_user": "The account address to retrieve all transactions for"
        },
        "return": "A list of transaction ids"
      },
      "getTransaction(uint256)": {
        "details": "Returns all information about a transaction as a tuple",
        "params": {
          "_id": "Id of transaction to return"
        },
        "return": "Transaction status, buyer address, seller address, transaction amount in Wei"
      },
      "getTransactionAmount(uint256)": {
        "details": "Return the agreed amount of the given transaction id",
        "params": {
          "_id": "Transaction id to retrieve the agreed amount"
        },
        "return": "Transaction amount in Wei"
      },
      "getTransactionBuyer(uint256)": {
        "details": "Return the buyer address of given transaction id",
        "params": {
          "_id": "Transaction id to retrieve buyer address of"
        },
        "return": "Buyer address"
      },
      "getTransactionSeller(uint256)": {
        "details": "Return the seller address of given transaction id",
        "params": {
          "_id": "Transaction id to retrieve seller address of"
        },
        "return": "Seller address"
      },
      "getTransactionStatus(uint256)": {
        "details": "Return the current status of the given transaction id",
        "params": {
          "_id": "Transaction id to retrieve status of return Transaction status"
        }
      },
      "startTransaction(uint256,address,address,uint256)": {
        "details": "Create a new transaction for the given listing, new transactions always starts in AWAITING_PAYMENT.",
        "params": {
          "_amount": "The transaction amount in Wei",
          "_buyer": "The buyer address of the listing",
          "_id": "The listing id that will be used for this transaction's id",
          "_seller": "The seller address that created the listing"
        }
      }
    }
  },
  "userdoc": {
    "methods": {},
    "notice": "A contract for managing trading of funds between buyers and sellers. This contract manages all transactions between buyers and sellers in the marketplace. When a buyer commits to purchasing a listing, a new transaction is created and buyer's purchase funds are held in this Escrow contract until the buyer confirms successful delivery of the item from seller. New transactions are started by creating a new Transaction struct and storing it in the map. Only 1 transaction per listing can be maintained at a time. Minimal safety checks are implemented here to avoid double payments or completing trades before payment is actually received in escrow."
  }
}