{
  "contractName": "Market",
  "abi": [
    {
      "inputs": [
        {
          "name": "_marketStore",
          "type": "address"
        },
        {
          "name": "_escrow",
          "type": "address"
        }
      ],
      "payable": false,
      "stateMutability": "nonpayable",
      "type": "constructor",
      "signature": "constructor"
    },
    {
      "anonymous": false,
      "inputs": [
        {
          "indexed": false,
          "name": "id",
          "type": "uint256"
        }
      ],
      "name": "ListingCreated",
      "type": "event",
      "signature": "0xe80eb3aeb9f2d3e4d0a9895619edb1761066e57cd2761c5fc47be8d6eebb6038"
    },
    {
      "anonymous": false,
      "inputs": [
        {
          "indexed": false,
          "name": "id",
          "type": "uint256"
        }
      ],
      "name": "ListingDisabled",
      "type": "event",
      "signature": "0xf50274e1c6256cf77899d9c47b15ab288f85c61c6582acb8ffc3af541eac10a3"
    },
    {
      "anonymous": false,
      "inputs": [
        {
          "indexed": false,
          "name": "id",
          "type": "uint256"
        }
      ],
      "name": "ListingSold",
      "type": "event",
      "signature": "0x0c4b1588e6bce14f6450379b0976f995df2fde943a8c652973e67a2ae18f349e"
    },
    {
      "constant": false,
      "inputs": [
        {
          "name": "_price",
          "type": "uint256"
        },
        {
          "name": "_title",
          "type": "string"
        },
        {
          "name": "_desc",
          "type": "string"
        },
        {
          "name": "_image",
          "type": "string"
        }
      ],
      "name": "createListing",
      "outputs": [],
      "payable": false,
      "stateMutability": "nonpayable",
      "type": "function",
      "signature": "0x5ff03120"
    },
    {
      "constant": false,
      "inputs": [
        {
          "name": "_listingId",
          "type": "uint256"
        }
      ],
      "name": "buyListing",
      "outputs": [],
      "payable": true,
      "stateMutability": "payable",
      "type": "function",
      "signature": "0x4884f459"
    },
    {
      "constant": false,
      "inputs": [
        {
          "name": "_transactionId",
          "type": "uint256"
        }
      ],
      "name": "confirmItemReceived",
      "outputs": [],
      "payable": false,
      "stateMutability": "nonpayable",
      "type": "function",
      "signature": "0x65e3966a"
    },
    {
      "constant": false,
      "inputs": [
        {
          "name": "_listingId",
          "type": "uint256"
        }
      ],
      "name": "disableListing",
      "outputs": [],
      "payable": false,
      "stateMutability": "nonpayable",
      "type": "function",
      "signature": "0x5c3fec1e"
    },
    {
      "constant": true,
      "inputs": [],
      "name": "getTotalListings",
      "outputs": [
        {
          "name": "",
          "type": "uint256"
        }
      ],
      "payable": false,
      "stateMutability": "view",
      "type": "function",
      "signature": "0xfbf30c35"
    },
    {
      "constant": true,
      "inputs": [
        {
          "name": "_seller",
          "type": "address"
        }
      ],
      "name": "getAllSellerListings",
      "outputs": [
        {
          "name": "",
          "type": "uint256[]"
        }
      ],
      "payable": false,
      "stateMutability": "view",
      "type": "function",
      "signature": "0x1b59292e"
    },
    {
      "constant": true,
      "inputs": [
        {
          "name": "_id",
          "type": "uint256"
        }
      ],
      "name": "getListing",
      "outputs": [
        {
          "name": "",
          "type": "uint256"
        },
        {
          "name": "",
          "type": "uint256"
        },
        {
          "name": "",
          "type": "string"
        },
        {
          "name": "",
          "type": "string"
        },
        {
          "name": "",
          "type": "string"
        },
        {
          "name": "",
          "type": "address"
        },
        {
          "name": "",
          "type": "uint256"
        }
      ],
      "payable": false,
      "stateMutability": "view",
      "type": "function",
      "signature": "0x107a274a"
    },
    {
      "constant": true,
      "inputs": [
        {
          "name": "_id",
          "type": "uint256"
        }
      ],
      "name": "getListingPrice",
      "outputs": [
        {
          "name": "",
          "type": "uint256"
        }
      ],
      "payable": false,
      "stateMutability": "view",
      "type": "function",
      "signature": "0xd6077fbf"
    },
    {
      "constant": true,
      "inputs": [
        {
          "name": "_id",
          "type": "uint256"
        }
      ],
      "name": "getListingTitle",
      "outputs": [
        {
          "name": "",
          "type": "string"
        }
      ],
      "payable": false,
      "stateMutability": "view",
      "type": "function",
      "signature": "0xebaa0396"
    },
    {
      "constant": true,
      "inputs": [
        {
          "name": "_id",
          "type": "uint256"
        }
      ],
      "name": "getListingDescription",
      "outputs": [
        {
          "name": "",
          "type": "string"
        }
      ],
      "payable": false,
      "stateMutability": "view",
      "type": "function",
      "signature": "0x288e6403"
    },
    {
      "constant": true,
      "inputs": [
        {
          "name": "_id",
          "type": "uint256"
        }
      ],
      "name": "getListingImage",
      "outputs": [
        {
          "name": "",
          "type": "string"
        }
      ],
      "payable": false,
      "stateMutability": "view",
      "type": "function",
      "signature": "0x130eafe0"
    },
    {
      "constant": true,
      "inputs": [
        {
          "name": "_id",
          "type": "uint256"
        }
      ],
      "name": "getListingSeller",
      "outputs": [
        {
          "name": "",
          "type": "address"
        }
      ],
      "payable": false,
      "stateMutability": "view",
      "type": "function",
      "signature": "0xb26e9fc4"
    },
    {
      "constant": true,
      "inputs": [
        {
          "name": "_id",
          "type": "uint256"
        }
      ],
      "name": "getListingStatus",
      "outputs": [
        {
          "name": "",
          "type": "uint256"
        }
      ],
      "payable": false,
      "stateMutability": "view",
      "type": "function",
      "signature": "0x2e24086a"
    },
    {
      "constant": true,
      "inputs": [
        {
          "name": "_user",
          "type": "address"
        }
      ],
      "name": "getAllUserTransactionIds",
      "outputs": [
        {
          "name": "",
          "type": "uint256[]"
        }
      ],
      "payable": false,
      "stateMutability": "view",
      "type": "function",
      "signature": "0x408ed69c"
    },
    {
      "constant": true,
      "inputs": [
        {
          "name": "_id",
          "type": "uint256"
        }
      ],
      "name": "getTransaction",
      "outputs": [
        {
          "name": "",
          "type": "uint256"
        },
        {
          "name": "",
          "type": "address"
        },
        {
          "name": "",
          "type": "address"
        },
        {
          "name": "",
          "type": "uint256"
        }
      ],
      "payable": false,
      "stateMutability": "view",
      "type": "function",
      "signature": "0x33ea3dc8"
    },
    {
      "constant": true,
      "inputs": [
        {
          "name": "_id",
          "type": "uint256"
        }
      ],
      "name": "getTransactionStatus",
      "outputs": [
        {
          "name": "",
          "type": "uint256"
        }
      ],
      "payable": false,
      "stateMutability": "view",
      "type": "function",
      "signature": "0x6bbc379d"
    },
    {
      "constant": true,
      "inputs": [
        {
          "name": "_id",
          "type": "uint256"
        }
      ],
      "name": "getTransactionBuyer",
      "outputs": [
        {
          "name": "",
          "type": "address"
        }
      ],
      "payable": false,
      "stateMutability": "view",
      "type": "function",
      "signature": "0x65202ba7"
    },
    {
      "constant": true,
      "inputs": [
        {
          "name": "_id",
          "type": "uint256"
        }
      ],
      "name": "getTransactionSeller",
      "outputs": [
        {
          "name": "",
          "type": "address"
        }
      ],
      "payable": false,
      "stateMutability": "view",
      "type": "function",
      "signature": "0x377aebf8"
    },
    {
      "constant": true,
      "inputs": [
        {
          "name": "_id",
          "type": "uint256"
        }
      ],
      "name": "getTransactionAmount",
      "outputs": [
        {
          "name": "",
          "type": "uint256"
        }
      ],
      "payable": false,
      "stateMutability": "view",
      "type": "function",
      "signature": "0x53d1f1bb"
    }
  ],
  "bytecode": "0x608060405234801561001057600080fd5b506040516040806125968339810180604052604081101561003057600080fd5b810190808051906020019092919080519060200190929190505050816000806101000a81548173ffffffffffffffffffffffffffffffffffffffff021916908373ffffffffffffffffffffffffffffffffffffffff16021790555080600160006101000a81548173ffffffffffffffffffffffffffffffffffffffff021916908373ffffffffffffffffffffffffffffffffffffffff16021790555050506124b9806100dd6000396000f3fe608060405260043610610107576000357c0100000000000000000000000000000000000000000000000000000000900463ffffffff168063107a274a1461010c578063130eafe0146102e05780631b59292e14610394578063288e64031461043a5780632e24086a146104ee57806333ea3dc81461053d578063377aebf8146105f9578063408ed69c146106745780634884f4591461071a57806353d1f1bb146107485780635c3fec1e146107975780635ff03120146107d257806365202ba7146109d257806365e3966a14610a4d5780636bbc379d14610a88578063b26e9fc414610ad7578063d6077fbf14610b52578063ebaa039614610ba1578063fbf30c3514610c55575b600080fd5b34801561011857600080fd5b506101456004803603602081101561012f57600080fd5b8101908080359060200190929190505050610c80565b604051808881526020018781526020018060200180602001806020018673ffffffffffffffffffffffffffffffffffffffff1673ffffffffffffffffffffffffffffffffffffffff168152602001858152602001848103845289818151815260200191508051906020019080838360005b838110156101d15780820151818401526020810190506101b6565b50505050905090810190601f1680156101fe5780820380516001836020036101000a031916815260200191505b50848103835288818151815260200191508051906020019080838360005b8381101561023757808201518184015260208101905061021c565b50505050905090810190601f1680156102645780820380516001836020036101000a031916815260200191505b50848103825287818151815260200191508051906020019080838360005b8381101561029d578082015181840152602081019050610282565b50505050905090810190601f1680156102ca5780820380516001836020036101000a031916815260200191505b509a505050505050505050505060405180910390f35b3480156102ec57600080fd5b506103196004803603602081101561030357600080fd5b8101908080359060200190929190505050610e8c565b6040518080602001828103825283818151815260200191508051906020019080838360005b8381101561035957808201518184015260208101905061033e565b50505050905090810190601f1680156103865780820380516001836020036101000a031916815260200191505b509250505060405180910390f35b3480156103a057600080fd5b506103e3600480360360208110156103b757600080fd5b81019080803573ffffffffffffffffffffffffffffffffffffffff169060200190929190505050610fb4565b6040518080602001828103825283818151815260200191508051906020019060200280838360005b8381101561042657808201518184015260208101905061040b565b505050509050019250505060405180910390f35b34801561044657600080fd5b506104736004803603602081101561045d57600080fd5b8101908080359060200190929190505050611108565b6040518080602001828103825283818151815260200191508051906020019080838360005b838110156104b3578082015181840152602081019050610498565b50505050905090810190601f1680156104e05780820380516001836020036101000a031916815260200191505b509250505060405180910390f35b3480156104fa57600080fd5b506105276004803603602081101561051157600080fd5b8101908080359060200190929190505050611230565b6040518082815260200191505060405180910390f35b34801561054957600080fd5b506105766004803603602081101561056057600080fd5b8101908080359060200190929190505050611302565b604051808581526020018473ffffffffffffffffffffffffffffffffffffffff1673ffffffffffffffffffffffffffffffffffffffff1681526020018373ffffffffffffffffffffffffffffffffffffffff1673ffffffffffffffffffffffffffffffffffffffff16815260200182815260200194505050505060405180910390f35b34801561060557600080fd5b506106326004803603602081101561061c57600080fd5b81019080803590602001909291905050506113ff565b604051808273ffffffffffffffffffffffffffffffffffffffff1673ffffffffffffffffffffffffffffffffffffffff16815260200191505060405180910390f35b34801561068057600080fd5b506106c36004803603602081101561069757600080fd5b81019080803573ffffffffffffffffffffffffffffffffffffffff1690602001909291905050506114d2565b6040518080602001828103825283818151815260200191508051906020019060200280838360005b838110156107065780820151818401526020810190506106eb565b505050509050019250505060405180910390f35b6107466004803603602081101561073057600080fd5b8101908080359060200190929190505050611627565b005b34801561075457600080fd5b506107816004803603602081101561076b57600080fd5b8101908080359060200190929190505050611a68565b6040518082815260200191505060405180910390f35b3480156107a357600080fd5b506107d0600480360360208110156107ba57600080fd5b8101908080359060200190929190505050611b3b565b005b3480156107de57600080fd5b506109d0600480360360808110156107f557600080fd5b81019080803590602001909291908035906020019064010000000081111561081c57600080fd5b82018360208201111561082e57600080fd5b8035906020019184600183028401116401000000008311171561085057600080fd5b91908080601f016020809104026020016040519081016040528093929190818152602001838380828437600081840152601f19601f820116905080830192505050505050509192919290803590602001906401000000008111156108b357600080fd5b8201836020820111156108c557600080fd5b803590602001918460018302840111640100000000831117156108e757600080fd5b91908080601f016020809104026020016040519081016040528093929190818152602001838380828437600081840152601f19601f8201169050808301925050505050505091929192908035906020019064010000000081111561094a57600080fd5b82018360208201111561095c57600080fd5b8035906020019184600183028401116401000000008311171561097e57600080fd5b91908080601f016020809104026020016040519081016040528093929190818152602001838380828437600081840152601f19601f820116905080830192505050505050509192919290505050611c1d565b005b3480156109de57600080fd5b50610a0b600480360360208110156109f557600080fd5b8101908080359060200190929190505050611ea5565b604051808273ffffffffffffffffffffffffffffffffffffffff1673ffffffffffffffffffffffffffffffffffffffff16815260200191505060405180910390f35b348015610a5957600080fd5b50610a8660048036036020811015610a7057600080fd5b8101908080359060200190929190505050611f78565b005b348015610a9457600080fd5b50610ac160048036036020811015610aab57600080fd5b8101908080359060200190929190505050612024565b6040518082815260200191505060405180910390f35b348015610ae357600080fd5b50610b1060048036036020811015610afa57600080fd5b81019080803590602001909291905050506120f7565b604051808273ffffffffffffffffffffffffffffffffffffffff1673ffffffffffffffffffffffffffffffffffffffff16815260200191505060405180910390f35b348015610b5e57600080fd5b50610b8b60048036036020811015610b7557600080fd5b81019080803590602001909291905050506121c9565b6040518082815260200191505060405180910390f35b348015610bad57600080fd5b50610bda60048036036020811015610bc457600080fd5b810190808035906020019092919050505061229b565b6040518080602001828103825283818151815260200191508051906020019080838360005b83811015610c1a578082015181840152602081019050610bff565b50505050905090810190601f168015610c475780820380516001836020036101000a031916815260200191505b509250505060405180910390f35b348015610c6157600080fd5b50610c6a6123c3565b6040518082815260200191505060405180910390f35b60008060608060606000806000809054906101000a900473ffffffffffffffffffffffffffffffffffffffff1673ffffffffffffffffffffffffffffffffffffffff1663107a274a896040518263ffffffff167c01000000000000000000000000000000000000000000000000000000000281526004018082815260200191505060006040518083038186803b158015610d1957600080fd5b505afa158015610d2d573d6000803e3d6000fd5b505050506040513d6000823e3d601f19601f8201168201806040525060e0811015610d5757600080fd5b8101908080519060200190929190805190602001909291908051640100000000811115610d8357600080fd5b82810190506020810184811115610d9957600080fd5b8151856001820283011164010000000082111715610db657600080fd5b50509291906020018051640100000000811115610dd257600080fd5b82810190506020810184811115610de857600080fd5b8151856001820283011164010000000082111715610e0557600080fd5b50509291906020018051640100000000811115610e2157600080fd5b82810190506020810184811115610e3757600080fd5b8151856001820283011164010000000082111715610e5457600080fd5b505092919060200180519060200190929190805190602001909291905050509650965096509650965096509650919395979092949650565b60606000809054906101000a900473ffffffffffffffffffffffffffffffffffffffff1673ffffffffffffffffffffffffffffffffffffffff1663130eafe0836040518263ffffffff167c01000000000000000000000000000000000000000000000000000000000281526004018082815260200191505060006040518083038186803b158015610f1c57600080fd5b505afa158015610f30573d6000803e3d6000fd5b505050506040513d6000823e3d601f19601f820116820180604052506020811015610f5a57600080fd5b810190808051640100000000811115610f7257600080fd5b82810190506020810184811115610f8857600080fd5b8151856001820283011164010000000082111715610fa557600080fd5b50509291905050509050919050565b60606000809054906101000a900473ffffffffffffffffffffffffffffffffffffffff1673ffffffffffffffffffffffffffffffffffffffff16631b59292e836040518263ffffffff167c0100000000000000000000000000000000000000000000000000000000028152600401808273ffffffffffffffffffffffffffffffffffffffff1673ffffffffffffffffffffffffffffffffffffffff16815260200191505060006040518083038186803b15801561107057600080fd5b505afa158015611084573d6000803e3d6000fd5b505050506040513d6000823e3d601f19601f8201168201806040525060208110156110ae57600080fd5b8101908080516401000000008111156110c657600080fd5b828101905060208101848111156110dc57600080fd5b81518560208202830111640100000000821117156110f957600080fd5b50509291905050509050919050565b60606000809054906101000a900473ffffffffffffffffffffffffffffffffffffffff1673ffffffffffffffffffffffffffffffffffffffff1663288e6403836040518263ffffffff167c01000000000000000000000000000000000000000000000000000000000281526004018082815260200191505060006040518083038186803b15801561119857600080fd5b505afa1580156111ac573d6000803e3d6000fd5b505050506040513d6000823e3d601f19601f8201168201806040525060208110156111d657600080fd5b8101908080516401000000008111156111ee57600080fd5b8281019050602081018481111561120457600080fd5b815185600182028301116401000000008211171561122157600080fd5b50509291905050509050919050565b60008060009054906101000a900473ffffffffffffffffffffffffffffffffffffffff1673ffffffffffffffffffffffffffffffffffffffff1663db378e3f836040518263ffffffff167c01000000000000000000000000000000000000000000000000000000000281526004018082815260200191505060206040518083038186803b1580156112c057600080fd5b505afa1580156112d4573d6000803e3d6000fd5b505050506040513d60208110156112ea57600080fd5b81019080805190602001909291905050509050919050565b600080600080600160009054906101000a900473ffffffffffffffffffffffffffffffffffffffff1673ffffffffffffffffffffffffffffffffffffffff166333ea3dc8866040518263ffffffff167c01000000000000000000000000000000000000000000000000000000000281526004018082815260200191505060806040518083038186803b15801561139757600080fd5b505afa1580156113ab573d6000803e3d6000fd5b505050506040513d60808110156113c157600080fd5b810190808051906020019092919080519060200190929190805190602001909291908051906020019092919050505093509350935093509193509193565b6000600160009054906101000a900473ffffffffffffffffffffffffffffffffffffffff1673ffffffffffffffffffffffffffffffffffffffff1663377aebf8836040518263ffffffff167c01000000000000000000000000000000000000000000000000000000000281526004018082815260200191505060206040518083038186803b15801561149057600080fd5b505afa1580156114a4573d6000803e3d6000fd5b505050506040513d60208110156114ba57600080fd5b81019080805190602001909291905050509050919050565b6060600160009054906101000a900473ffffffffffffffffffffffffffffffffffffffff1673ffffffffffffffffffffffffffffffffffffffff16634dd87af7836040518263ffffffff167c0100000000000000000000000000000000000000000000000000000000028152600401808273ffffffffffffffffffffffffffffffffffffffff1673ffffffffffffffffffffffffffffffffffffffff16815260200191505060006040518083038186803b15801561158f57600080fd5b505afa1580156115a3573d6000803e3d6000fd5b505050506040513d6000823e3d601f19601f8201168201806040525060208110156115cd57600080fd5b8101908080516401000000008111156115e557600080fd5b828101905060208101848111156115fb57600080fd5b815185602082028301116401000000008211171561161857600080fd5b50509291905050509050919050565b60008060009054906101000a900473ffffffffffffffffffffffffffffffffffffffff1673ffffffffffffffffffffffffffffffffffffffff1663d6077fbf836040518263ffffffff167c01000000000000000000000000000000000000000000000000000000000281526004018082815260200191505060206040518083038186803b1580156116b757600080fd5b505afa1580156116cb573d6000803e3d6000fd5b505050506040513d60208110156116e157600080fd5b8101908080519060200190929190505050905060008060009054906101000a900473ffffffffffffffffffffffffffffffffffffffff1673ffffffffffffffffffffffffffffffffffffffff1663b26e9fc4846040518263ffffffff167c01000000000000000000000000000000000000000000000000000000000281526004018082815260200191505060206040518083038186803b15801561178457600080fd5b505afa158015611798573d6000803e3d6000fd5b505050506040513d60208110156117ae57600080fd5b81019080805190602001909291905050509050600160009054906101000a900473ffffffffffffffffffffffffffffffffffffffff1673ffffffffffffffffffffffffffffffffffffffff1663b234c49d843384866040518563ffffffff167c0100000000000000000000000000000000000000000000000000000000028152600401808581526020018473ffffffffffffffffffffffffffffffffffffffff1673ffffffffffffffffffffffffffffffffffffffff1681526020018373ffffffffffffffffffffffffffffffffffffffff1673ffffffffffffffffffffffffffffffffffffffff168152602001828152602001945050505050600060405180830381600087803b1580156118c257600080fd5b505af11580156118d6573d6000803e3d6000fd5b50505050600160009054906101000a900473ffffffffffffffffffffffffffffffffffffffff1673ffffffffffffffffffffffffffffffffffffffff1663aef8a48634856040518363ffffffff167c0100000000000000000000000000000000000000000000000000000000028152600401808281526020019150506000604051808303818588803b15801561196b57600080fd5b505af115801561197f573d6000803e3d6000fd5b50505050506000809054906101000a900473ffffffffffffffffffffffffffffffffffffffff1673ffffffffffffffffffffffffffffffffffffffff1663d9def3c4846040518263ffffffff167c010000000000000000000000000000000000000000000000000000000002815260040180828152602001915050600060405180830381600087803b158015611a1457600080fd5b505af1158015611a28573d6000803e3d6000fd5b505050507f0c4b1588e6bce14f6450379b0976f995df2fde943a8c652973e67a2ae18f349e836040518082815260200191505060405180910390a1505050565b6000600160009054906101000a900473ffffffffffffffffffffffffffffffffffffffff1673ffffffffffffffffffffffffffffffffffffffff166353d1f1bb836040518263ffffffff167c01000000000000000000000000000000000000000000000000000000000281526004018082815260200191505060206040518083038186803b158015611af957600080fd5b505afa158015611b0d573d6000803e3d6000fd5b505050506040513d6020811015611b2357600080fd5b81019080805190602001909291905050509050919050565b6000809054906101000a900473ffffffffffffffffffffffffffffffffffffffff1673ffffffffffffffffffffffffffffffffffffffff16635c3fec1e826040518263ffffffff167c010000000000000000000000000000000000000000000000000000000002815260040180828152602001915050600060405180830381600087803b158015611bcb57600080fd5b505af1158015611bdf573d6000803e3d6000fd5b505050507ff50274e1c6256cf77899d9c47b15ab288f85c61c6582acb8ffc3af541eac10a3816040518082815260200191505060405180910390a150565b60008060009054906101000a900473ffffffffffffffffffffffffffffffffffffffff1673ffffffffffffffffffffffffffffffffffffffff1663251c5aa386868686336040518663ffffffff167c0100000000000000000000000000000000000000000000000000000000028152600401808681526020018060200180602001806020018573ffffffffffffffffffffffffffffffffffffffff1673ffffffffffffffffffffffffffffffffffffffff168152602001848103845288818151815260200191508051906020019080838360005b83811015611d0c578082015181840152602081019050611cf1565b50505050905090810190601f168015611d395780820380516001836020036101000a031916815260200191505b50848103835287818151815260200191508051906020019080838360005b83811015611d72578082015181840152602081019050611d57565b50505050905090810190601f168015611d9f5780820380516001836020036101000a031916815260200191505b50848103825286818151815260200191508051906020019080838360005b83811015611dd8578082015181840152602081019050611dbd565b50505050905090810190601f168015611e055780820380516001836020036101000a031916815260200191505b5098505050505050505050602060405180830381600087803b158015611e2a57600080fd5b505af1158015611e3e573d6000803e3d6000fd5b505050506040513d6020811015611e5457600080fd5b810190808051906020019092919050505090507fe80eb3aeb9f2d3e4d0a9895619edb1761066e57cd2761c5fc47be8d6eebb6038816040518082815260200191505060405180910390a15050505050565b6000600160009054906101000a900473ffffffffffffffffffffffffffffffffffffffff1673ffffffffffffffffffffffffffffffffffffffff166365202ba7836040518263ffffffff167c01000000000000000000000000000000000000000000000000000000000281526004018082815260200191505060206040518083038186803b158015611f3657600080fd5b505afa158015611f4a573d6000803e3d6000fd5b505050506040513d6020811015611f6057600080fd5b81019080805190602001909291905050509050919050565b600160009054906101000a900473ffffffffffffffffffffffffffffffffffffffff1673ffffffffffffffffffffffffffffffffffffffff166365e3966a826040518263ffffffff167c010000000000000000000000000000000000000000000000000000000002815260040180828152602001915050600060405180830381600087803b15801561200957600080fd5b505af115801561201d573d6000803e3d6000fd5b5050505050565b6000600160009054906101000a900473ffffffffffffffffffffffffffffffffffffffff1673ffffffffffffffffffffffffffffffffffffffff16636bbc379d836040518263ffffffff167c01000000000000000000000000000000000000000000000000000000000281526004018082815260200191505060206040518083038186803b1580156120b557600080fd5b505afa1580156120c9573d6000803e3d6000fd5b505050506040513d60208110156120df57600080fd5b81019080805190602001909291905050509050919050565b60008060009054906101000a900473ffffffffffffffffffffffffffffffffffffffff1673ffffffffffffffffffffffffffffffffffffffff1663b26e9fc4836040518263ffffffff167c01000000000000000000000000000000000000000000000000000000000281526004018082815260200191505060206040518083038186803b15801561218757600080fd5b505afa15801561219b573d6000803e3d6000fd5b505050506040513d60208110156121b157600080fd5b81019080805190602001909291905050509050919050565b60008060009054906101000a900473ffffffffffffffffffffffffffffffffffffffff1673ffffffffffffffffffffffffffffffffffffffff1663d6077fbf836040518263ffffffff167c01000000000000000000000000000000000000000000000000000000000281526004018082815260200191505060206040518083038186803b15801561225957600080fd5b505afa15801561226d573d6000803e3d6000fd5b505050506040513d602081101561228357600080fd5b81019080805190602001909291905050509050919050565b60606000809054906101000a900473ffffffffffffffffffffffffffffffffffffffff1673ffffffffffffffffffffffffffffffffffffffff1663ebaa0396836040518263ffffffff167c01000000000000000000000000000000000000000000000000000000000281526004018082815260200191505060006040518083038186803b15801561232b57600080fd5b505afa15801561233f573d6000803e3d6000fd5b505050506040513d6000823e3d601f19601f82011682018060405250602081101561236957600080fd5b81019080805164010000000081111561238157600080fd5b8281019050602081018481111561239757600080fd5b81518560018202830111640100000000821117156123b457600080fd5b50509291905050509050919050565b6000806000809054906101000a900473ffffffffffffffffffffffffffffffffffffffff1673ffffffffffffffffffffffffffffffffffffffff1663c78b616c6040518163ffffffff167c010000000000000000000000000000000000000000000000000000000002815260040160206040518083038186803b15801561244957600080fd5b505afa15801561245d573d6000803e3d6000fd5b505050506040513d602081101561247357600080fd5b81019080805190602001909291905050509050809150509056fea165627a7a7230582056efdda6668b9cbd6957e34a31aa450ad7ad28622b9d4a75e2ef16766ea6d9710029",
  "source": "pragma solidity ^0.5.0;\n\nimport \"./MarketStore.sol\";\nimport \"./Escrow.sol\";\n\n/**\n* @author Karen Suen\n* @title A proxy contract for interacting with low-level contracts.\n* @notice All client interactions should use this contract to modify the state\n* of the marketplace (create, access, modify listings and transactions)\n* @dev In practice, this proxy contract should have \"ownership\" of the low level\n* contracts to ensure only this contract can invoke their methods by manually\n* implementing ownership checks or using the OpenZeppelin Ownable contract.\n* To reduce gas cost, business logic is implemented in the client app.\n* This proxy contract can be replaced to support upgradability without losing\n* the current data stored in the contract which is maintained by MarketStore\n* and Escrow. Listings are never removed, use INACTIVE state to disable listings.\n*/\ncontract Market {\n\n    MarketStore marketStore;\n    Escrow escrow;\n\n    event ListingCreated(uint id);\n\n    event ListingDisabled(uint id);\n\n    event ListingSold(uint id);\n\n    /**\n    * @dev Constructor initialises instances of low-level storage contracts for\n    * this proxy contract using the given contract addresses.\n    */\n    constructor(address _marketStore, address _escrow) public {\n        marketStore = MarketStore(_marketStore);\n        escrow = Escrow(_escrow);\n    }\n\n    /**\n    * @dev Create a new listing in the marketplace and notifies client with the\n    * new listing id through event. Sender of this function is assumed to be the\n    * seller of the listing.\n    * @param _price The selling price of listing\n    * @param _title The title of the listing and item for sale\n    * @param _desc The description of the listing\n    * @param _image The reference for accessing the image from a distributed database\n    */\n    function createListing(\n        uint _price,\n        string memory _title,\n        string memory _desc,\n        string memory _image\n    )\n        public\n    {\n        uint listingId = marketStore.createListingInStore(_price, _title, _desc, _image, msg.sender);\n\n        emit ListingCreated(listingId);\n    }\n\n    /**\n    * @dev Sender of this function purchases the given listing and sends the\n    * correct amount of funds to be held in escrow. This function assumes the\n    * correct amount of funds are sent and the listing exists so safety checks\n    * should be implemented by the client app.\n    * @param _listingId The listing id to purchase with funds\n    */\n    function buyListing(uint _listingId) public payable {\n        uint price = marketStore.getListingPrice(_listingId);\n        address seller = marketStore.getListingSeller(_listingId);\n\n        // start transaction and escrow funds to storage contract\n        escrow.startTransaction(_listingId, msg.sender, seller, price);\n        escrow.fundTransaction.value(msg.value)(_listingId);\n\n        // update listing state to sold\n        marketStore.listingSold(_listingId);\n        emit ListingSold(_listingId);\n    }\n\n    /**\n    * @dev Updates a transaction to confirmed status, triggering release of\n    * buyer's purchase funds to the seller and completing the trade.\n    * @param _transactionId The id of listing to update\n    */\n    function confirmItemReceived(uint _transactionId) public {\n        // confirm transaction item received and release funds to buyer\n        escrow.confirmItemReceived(_transactionId);\n    }\n\n\n    /**\n    * @dev Updates a listing to disabled status to indicate it is no longer\n    * available for sale.\n    * @param _listingId The id of listing to update\n    */\n    function disableListing(uint _listingId) public {\n        marketStore.disableListing(_listingId);\n        emit ListingDisabled(_listingId);\n    }\n\n    /**\n    * @dev Returns the total number of listings ever stored in the marketplace\n    */\n    function getTotalListings() public view returns (uint) {\n        uint total = marketStore.totalListings();\n        return total;\n    }\n\n    /**\n    * @dev Returns a list of all listings created by the given address\n    * @param _seller User address to get all listings for\n    */\n    function getAllSellerListings(address _seller) public view returns (uint[] memory) {\n        return marketStore.getAllSellerListings(_seller);\n    }\n\n    /**\n    * @dev Returns all information about as a tuple. Note, the listing status\n    * is returned as an integer: 0 = AVAILABLE, 1 = SOLD, 2 = INACTIVE\n    * @param _id Id of listing\n    */\n    function getListing(uint _id) public view returns (\n        uint,\n        uint,\n        string memory,\n        string memory,\n        string memory,\n        address,\n        uint\n    )\n\n    {\n        return (marketStore.getListing(_id));\n    }\n\n    /**\n    * @dev Returns the selling price of the given listing id.\n    * @param _id Id of listing\n    */\n    function getListingPrice(uint _id) public view returns (uint) {\n        return marketStore.getListingPrice(_id);\n    }\n\n    /**\n    * @dev Returns the title of the given listing id.\n    * @param _id Id of listing\n    */\n    function getListingTitle(uint _id) public view returns (string memory) {\n        return marketStore.getListingTitle(_id);\n    }\n\n    /**\n    * @dev Returns the reference to the description of the given listing id\n    * stored in a distributed database.\n    * @param _id Id of listing\n    */\n    function getListingDescription(uint _id) public view returns (string memory) {\n        return marketStore.getListingDescription(_id);\n    }\n\n    /**\n    * @dev Returns the reference to the image of the given listing id\n    * stored in a distributed database.\n    * @param _id Id of listing\n    */\n    function getListingImage(uint _id) public view returns (string memory) {\n        return marketStore.getListingImage(_id);\n    }\n\n    /**\n    * @dev Returns the seller address of the given listing id.\n    * @param _id Id of listing\n    */\n    function getListingSeller(uint _id) public view returns (address) {\n        return marketStore.getListingSeller(_id);\n    }\n\n    /**\n    * @dev Returns the status of a listing as an integer:\n    * 0 = AVAILABLE, 1 = SOLD, 2 = INACTIVE\n    * @param _id Id of listing\n    */\n    function getListingStatus(uint _id) public view returns (uint) {\n        return marketStore.getListingState(_id);\n    }\n\n    /**\n    * @dev Returns a list of all transaction ids involving the given user address\n    * @param _user User address\n    */\n    function getAllUserTransactionIds(address _user) public view returns (uint[] memory) {\n        return escrow.getAllUserTransactions(_user);\n    }\n\n    /**\n    * @dev Returns all information about a transaction as a tuple. Note, the\n    * transaction status is returned as an integer: 0 = AWAITING_PAYMENT,\n    * 1 = AWAITING_DELIVERY, 2 = CONFIRMED\n    * @param _id Id of the transaction\n    */\n    function getTransaction(uint _id) public view returns (uint, address, address, uint) {\n        return (escrow.getTransaction(_id));\n    }\n\n    /**\n    * @dev Returns the status of the given transaction id as an integer:\n    * 0 = AWAITING_PAYMENT, 1 = AWAITING_DELIVERY, 2 = CONFIRMED\n    * @param _id Id of the transaction\n    */\n    function getTransactionStatus(uint _id) public view returns (uint) {\n        return escrow.getTransactionStatus(_id);\n    }\n\n    /**\n    * @dev Returns the buyer address of the given transaction id\n    * @param _id Id of the transaction\n    */\n    function getTransactionBuyer(uint _id) public view returns (address) {\n        return escrow.getTransactionBuyer(_id);\n    }\n\n    /**\n    * @dev Returns the seller address of the given transaction id\n    * @param _id Id of the transaction\n    */\n    function getTransactionSeller(uint _id) public view returns (address) {\n        return escrow.getTransactionSeller(_id);\n    }\n\n    /**\n    * @dev Returns the amount of funds (to be) held in escrow of the given\n    * transaction id\n    * @param _id Id of the transaction\n    */\n    function getTransactionAmount(uint _id) public view returns (uint) {\n        return escrow.getTransactionAmount(_id);\n    }\n\n}\n",
  "sourcePath": "/Users/karen/dapps/project-dapp2/contracts/Market.sol",
  "compiler": {
    "name": "solc",
    "version": "0.5.0+commit.1d4f565a.Emscripten.clang"
  },
  "schemaVersion": "3.0.2",
  "updatedAt": "2019-04-23T20:45:56.097Z",
  "devdoc": {
    "author": "Karen Suen",
    "details": "In practice, this proxy contract should have \"ownership\" of the low level contracts to ensure only this contract can invoke their methods by manually implementing ownership checks or using the OpenZeppelin Ownable contract. To reduce gas cost, business logic is implemented in the client app. This proxy contract can be replaced to support upgradability without losing the current data stored in the contract which is maintained by MarketStore and Escrow. Listings are never removed, use INACTIVE state to disable listings.",
    "methods": {
      "buyListing(uint256)": {
        "details": "Sender of this function purchases the given listing and sends the correct amount of funds to be held in escrow. This function assumes the correct amount of funds are sent and the listing exists so safety checks should be implemented by the client app.",
        "params": {
          "_listingId": "The listing id to purchase with funds"
        }
      },
      "confirmItemReceived(uint256)": {
        "details": "Updates a transaction to confirmed status, triggering release of buyer's purchase funds to the seller and completing the trade.",
        "params": {
          "_transactionId": "The id of listing to update"
        }
      },
      "constructor": {
        "details": "Constructor initialises instances of low-level storage contracts for this proxy contract using the given contract addresses."
      },
      "createListing(uint256,string,string,string)": {
        "details": "Create a new listing in the marketplace and notifies client with the new listing id through event. Sender of this function is assumed to be the seller of the listing.",
        "params": {
          "_desc": "The description of the listing",
          "_image": "The reference for accessing the image from a distributed database",
          "_price": "The selling price of listing",
          "_title": "The title of the listing and item for sale"
        }
      },
      "disableListing(uint256)": {
        "details": "Updates a listing to disabled status to indicate it is no longer available for sale.",
        "params": {
          "_listingId": "The id of listing to update"
        }
      },
      "getAllSellerListings(address)": {
        "details": "Returns a list of all listings created by the given address",
        "params": {
          "_seller": "User address to get all listings for"
        }
      },
      "getAllUserTransactionIds(address)": {
        "details": "Returns a list of all transaction ids involving the given user address",
        "params": {
          "_user": "User address"
        }
      },
      "getListing(uint256)": {
        "details": "Returns all information about as a tuple. Note, the listing status is returned as an integer: 0 = AVAILABLE, 1 = SOLD, 2 = INACTIVE",
        "params": {
          "_id": "Id of listing"
        }
      },
      "getListingDescription(uint256)": {
        "details": "Returns the reference to the description of the given listing id stored in a distributed database.",
        "params": {
          "_id": "Id of listing"
        }
      },
      "getListingImage(uint256)": {
        "details": "Returns the reference to the image of the given listing id stored in a distributed database.",
        "params": {
          "_id": "Id of listing"
        }
      },
      "getListingPrice(uint256)": {
        "details": "Returns the selling price of the given listing id.",
        "params": {
          "_id": "Id of listing"
        }
      },
      "getListingSeller(uint256)": {
        "details": "Returns the seller address of the given listing id.",
        "params": {
          "_id": "Id of listing"
        }
      },
      "getListingStatus(uint256)": {
        "details": "Returns the status of a listing as an integer: 0 = AVAILABLE, 1 = SOLD, 2 = INACTIVE",
        "params": {
          "_id": "Id of listing"
        }
      },
      "getListingTitle(uint256)": {
        "details": "Returns the title of the given listing id.",
        "params": {
          "_id": "Id of listing"
        }
      },
      "getTotalListings()": {
        "details": "Returns the total number of listings ever stored in the marketplace"
      },
      "getTransaction(uint256)": {
        "details": "Returns all information about a transaction as a tuple. Note, the transaction status is returned as an integer: 0 = AWAITING_PAYMENT, 1 = AWAITING_DELIVERY, 2 = CONFIRMED",
        "params": {
          "_id": "Id of the transaction"
        }
      },
      "getTransactionAmount(uint256)": {
        "details": "Returns the amount of funds (to be) held in escrow of the given transaction id",
        "params": {
          "_id": "Id of the transaction"
        }
      },
      "getTransactionBuyer(uint256)": {
        "details": "Returns the buyer address of the given transaction id",
        "params": {
          "_id": "Id of the transaction"
        }
      },
      "getTransactionSeller(uint256)": {
        "details": "Returns the seller address of the given transaction id",
        "params": {
          "_id": "Id of the transaction"
        }
      },
      "getTransactionStatus(uint256)": {
        "details": "Returns the status of the given transaction id as an integer: 0 = AWAITING_PAYMENT, 1 = AWAITING_DELIVERY, 2 = CONFIRMED",
        "params": {
          "_id": "Id of the transaction"
        }
      }
    },
    "title": "A proxy contract for interacting with low-level contracts."
  },
  "userdoc": {
    "methods": {},
    "notice": "All client interactions should use this contract to modify the state of the marketplace (create, access, modify listings and transactions)"
  }
}