{
  "contractName": "MarketStore",
  "abi": [
    {
      "constant": true,
      "inputs": [
        {
          "name": "",
          "type": "address"
        },
        {
          "name": "",
          "type": "uint256"
        }
      ],
      "name": "allUserListings",
      "outputs": [
        {
          "name": "",
          "type": "uint256"
        }
      ],
      "payable": false,
      "stateMutability": "view",
      "type": "function",
      "signature": "0x60207527"
    },
    {
      "constant": true,
      "inputs": [],
      "name": "totalListings",
      "outputs": [
        {
          "name": "",
          "type": "uint256"
        }
      ],
      "payable": false,
      "stateMutability": "view",
      "type": "function",
      "signature": "0xc78b616c"
    },
    {
      "constant": true,
      "inputs": [
        {
          "name": "",
          "type": "uint256"
        }
      ],
      "name": "listings",
      "outputs": [
        {
          "name": "id",
          "type": "uint256"
        },
        {
          "name": "price",
          "type": "uint256"
        },
        {
          "name": "title",
          "type": "string"
        },
        {
          "name": "description",
          "type": "string"
        },
        {
          "name": "imageHash",
          "type": "string"
        },
        {
          "name": "seller",
          "type": "address"
        },
        {
          "name": "state",
          "type": "uint8"
        }
      ],
      "payable": false,
      "stateMutability": "view",
      "type": "function",
      "signature": "0xde74e57b"
    },
    {
      "inputs": [],
      "payable": false,
      "stateMutability": "nonpayable",
      "type": "constructor",
      "signature": "constructor"
    },
    {
      "constant": false,
      "inputs": [
        {
          "name": "_price",
          "type": "uint256"
        },
        {
          "name": "_title",
          "type": "string"
        },
        {
          "name": "_desc",
          "type": "string"
        },
        {
          "name": "_image",
          "type": "string"
        },
        {
          "name": "_seller",
          "type": "address"
        }
      ],
      "name": "createListingInStore",
      "outputs": [
        {
          "name": "",
          "type": "uint256"
        }
      ],
      "payable": false,
      "stateMutability": "nonpayable",
      "type": "function",
      "signature": "0x251c5aa3"
    },
    {
      "constant": false,
      "inputs": [
        {
          "name": "_id",
          "type": "uint256"
        }
      ],
      "name": "disableListing",
      "outputs": [],
      "payable": false,
      "stateMutability": "nonpayable",
      "type": "function",
      "signature": "0x5c3fec1e"
    },
    {
      "constant": false,
      "inputs": [
        {
          "name": "_id",
          "type": "uint256"
        }
      ],
      "name": "listingSold",
      "outputs": [],
      "payable": false,
      "stateMutability": "nonpayable",
      "type": "function",
      "signature": "0xd9def3c4"
    },
    {
      "constant": false,
      "inputs": [
        {
          "name": "_id",
          "type": "uint256"
        }
      ],
      "name": "listingAvailable",
      "outputs": [],
      "payable": false,
      "stateMutability": "nonpayable",
      "type": "function",
      "signature": "0xd80b1f55"
    },
    {
      "constant": true,
      "inputs": [
        {
          "name": "_id",
          "type": "uint256"
        }
      ],
      "name": "getListing",
      "outputs": [
        {
          "name": "",
          "type": "uint256"
        },
        {
          "name": "",
          "type": "uint256"
        },
        {
          "name": "",
          "type": "string"
        },
        {
          "name": "",
          "type": "string"
        },
        {
          "name": "",
          "type": "string"
        },
        {
          "name": "",
          "type": "address"
        },
        {
          "name": "",
          "type": "uint256"
        }
      ],
      "payable": false,
      "stateMutability": "view",
      "type": "function",
      "signature": "0x107a274a"
    },
    {
      "constant": true,
      "inputs": [
        {
          "name": "_seller",
          "type": "address"
        }
      ],
      "name": "getAllSellerListings",
      "outputs": [
        {
          "name": "",
          "type": "uint256[]"
        }
      ],
      "payable": false,
      "stateMutability": "view",
      "type": "function",
      "signature": "0x1b59292e"
    },
    {
      "constant": true,
      "inputs": [
        {
          "name": "_id",
          "type": "uint256"
        }
      ],
      "name": "getListingPrice",
      "outputs": [
        {
          "name": "",
          "type": "uint256"
        }
      ],
      "payable": false,
      "stateMutability": "view",
      "type": "function",
      "signature": "0xd6077fbf"
    },
    {
      "constant": true,
      "inputs": [
        {
          "name": "_id",
          "type": "uint256"
        }
      ],
      "name": "getListingTitle",
      "outputs": [
        {
          "name": "",
          "type": "string"
        }
      ],
      "payable": false,
      "stateMutability": "view",
      "type": "function",
      "signature": "0xebaa0396"
    },
    {
      "constant": true,
      "inputs": [
        {
          "name": "_id",
          "type": "uint256"
        }
      ],
      "name": "getListingDescription",
      "outputs": [
        {
          "name": "",
          "type": "string"
        }
      ],
      "payable": false,
      "stateMutability": "view",
      "type": "function",
      "signature": "0x288e6403"
    },
    {
      "constant": true,
      "inputs": [
        {
          "name": "_id",
          "type": "uint256"
        }
      ],
      "name": "getListingImage",
      "outputs": [
        {
          "name": "",
          "type": "string"
        }
      ],
      "payable": false,
      "stateMutability": "view",
      "type": "function",
      "signature": "0x130eafe0"
    },
    {
      "constant": true,
      "inputs": [
        {
          "name": "_id",
          "type": "uint256"
        }
      ],
      "name": "getListingSeller",
      "outputs": [
        {
          "name": "",
          "type": "address"
        }
      ],
      "payable": false,
      "stateMutability": "view",
      "type": "function",
      "signature": "0xb26e9fc4"
    },
    {
      "constant": true,
      "inputs": [
        {
          "name": "_id",
          "type": "uint256"
        }
      ],
      "name": "getListingState",
      "outputs": [
        {
          "name": "",
          "type": "uint256"
        }
      ],
      "payable": false,
      "stateMutability": "view",
      "type": "function",
      "signature": "0xdb378e3f"
    }
  ],
  "bytecode": "0x608060405234801561001057600080fd5b506000808190555061186c806100276000396000f3fe6080604052600436106100db576000357c0100000000000000000000000000000000000000000000000000000000900463ffffffff168063107a274a146100e0578063130eafe0146102b45780631b59292e14610368578063251c5aa31461040e578063288e6403146106425780635c3fec1e146106f65780636020752714610731578063b26e9fc4146107a0578063c78b616c1461081b578063d6077fbf14610846578063d80b1f5514610895578063d9def3c4146108d0578063db378e3f1461090b578063de74e57b1461095a578063ebaa039614610b3c575b600080fd5b3480156100ec57600080fd5b506101196004803603602081101561010357600080fd5b8101908080359060200190929190505050610bf0565b604051808881526020018781526020018060200180602001806020018673ffffffffffffffffffffffffffffffffffffffff1673ffffffffffffffffffffffffffffffffffffffff168152602001858152602001848103845289818151815260200191508051906020019080838360005b838110156101a557808201518184015260208101905061018a565b50505050905090810190601f1680156101d25780820380516001836020036101000a031916815260200191505b50848103835288818151815260200191508051906020019080838360005b8381101561020b5780820151818401526020810190506101f0565b50505050905090810190601f1680156102385780820380516001836020036101000a031916815260200191505b50848103825287818151815260200191508051906020019080838360005b83811015610271578082015181840152602081019050610256565b50505050905090810190601f16801561029e5780820380516001836020036101000a031916815260200191505b509a505050505050505050505060405180910390f35b3480156102c057600080fd5b506102ed600480360360208110156102d757600080fd5b8101908080359060200190929190505050610ef2565b6040518080602001828103825283818151815260200191508051906020019080838360005b8381101561032d578082015181840152602081019050610312565b50505050905090810190601f16801561035a5780820380516001836020036101000a031916815260200191505b509250505060405180910390f35b34801561037457600080fd5b506103b76004803603602081101561038b57600080fd5b81019080803573ffffffffffffffffffffffffffffffffffffffff169060200190929190505050610faa565b6040518080602001828103825283818151815260200191508051906020019060200280838360005b838110156103fa5780820151818401526020810190506103df565b505050509050019250505060405180910390f35b34801561041a57600080fd5b5061062c600480360360a081101561043157600080fd5b81019080803590602001909291908035906020019064010000000081111561045857600080fd5b82018360208201111561046a57600080fd5b8035906020019184600183028401116401000000008311171561048c57600080fd5b91908080601f016020809104026020016040519081016040528093929190818152602001838380828437600081840152601f19601f820116905080830192505050505050509192919290803590602001906401000000008111156104ef57600080fd5b82018360208201111561050157600080fd5b8035906020019184600183028401116401000000008311171561052357600080fd5b91908080601f016020809104026020016040519081016040528093929190818152602001838380828437600081840152601f19601f8201169050808301925050505050505091929192908035906020019064010000000081111561058657600080fd5b82018360208201111561059857600080fd5b803590602001918460018302840111640100000000831117156105ba57600080fd5b91908080601f016020809104026020016040519081016040528093929190818152602001838380828437600081840152601f19601f820116905080830192505050505050509192919290803573ffffffffffffffffffffffffffffffffffffffff169060200190929190505050611041565b6040518082815260200191505060405180910390f35b34801561064e57600080fd5b5061067b6004803603602081101561066557600080fd5b8101908080359060200190929190505050611217565b6040518080602001828103825283818151815260200191508051906020019080838360005b838110156106bb5780820151818401526020810190506106a0565b50505050905090810190601f1680156106e85780820380516001836020036101000a031916815260200191505b509250505060405180910390f35b34801561070257600080fd5b5061072f6004803603602081101561071957600080fd5b81019080803590602001909291905050506112cf565b005b34801561073d57600080fd5b5061078a6004803603604081101561075457600080fd5b81019080803573ffffffffffffffffffffffffffffffffffffffff1690602001909291908035906020019092919050505061130a565b6040518082815260200191505060405180910390f35b3480156107ac57600080fd5b506107d9600480360360208110156107c357600080fd5b810190808035906020019092919050505061133a565b604051808273ffffffffffffffffffffffffffffffffffffffff1673ffffffffffffffffffffffffffffffffffffffff16815260200191505060405180910390f35b34801561082757600080fd5b5061083061137a565b6040518082815260200191505060405180910390f35b34801561085257600080fd5b5061087f6004803603602081101561086957600080fd5b8101908080359060200190929190505050611380565b6040518082815260200191505060405180910390f35b3480156108a157600080fd5b506108ce600480360360208110156108b857600080fd5b81019080803590602001909291905050506113a0565b005b3480156108dc57600080fd5b50610909600480360360208110156108f357600080fd5b81019080803590602001909291905050506113db565b005b34801561091757600080fd5b506109446004803603602081101561092e57600080fd5b8101908080359060200190929190505050611415565b6040518082815260200191505060405180910390f35b34801561096657600080fd5b506109936004803603602081101561097d57600080fd5b810190808035906020019092919050505061144d565b604051808881526020018781526020018060200180602001806020018673ffffffffffffffffffffffffffffffffffffffff1673ffffffffffffffffffffffffffffffffffffffff1681526020018560028111156109ed57fe5b60ff168152602001848103845289818151815260200191508051906020019080838360005b83811015610a2d578082015181840152602081019050610a12565b50505050905090810190601f168015610a5a5780820380516001836020036101000a031916815260200191505b50848103835288818151815260200191508051906020019080838360005b83811015610a93578082015181840152602081019050610a78565b50505050905090810190601f168015610ac05780820380516001836020036101000a031916815260200191505b50848103825287818151815260200191508051906020019080838360005b83811015610af9578082015181840152602081019050610ade565b50505050905090810190601f168015610b265780820380516001836020036101000a031916815260200191505b509a505050505050505050505060405180910390f35b348015610b4857600080fd5b50610b7560048036036020811015610b5f57600080fd5b8101908080359060200190929190505050611684565b6040518080602001828103825283818151815260200191508051906020019080838360005b83811015610bb5578082015181840152602081019050610b9a565b50505050905090810190601f168015610be25780820380516001836020036101000a031916815260200191505b509250505060405180910390f35b6000806060806060600080610c0361173c565b600160008a815260200190815260200160002060e060405190810160405290816000820154815260200160018201548152602001600282018054600181600116156101000203166002900480601f016020809104026020016040519081016040528092919081815260200182805460018160011615610100020316600290048015610ccf5780601f10610ca457610100808354040283529160200191610ccf565b820191906000526020600020905b815481529060010190602001808311610cb257829003601f168201915b50505050508152602001600382018054600181600116156101000203166002900480601f016020809104026020016040519081016040528092919081815260200182805460018160011615610100020316600290048015610d715780601f10610d4657610100808354040283529160200191610d71565b820191906000526020600020905b815481529060010190602001808311610d5457829003601f168201915b50505050508152602001600482018054600181600116156101000203166002900480601f016020809104026020016040519081016040528092919081815260200182805460018160011615610100020316600290048015610e135780601f10610de857610100808354040283529160200191610e13565b820191906000526020600020905b815481529060010190602001808311610df657829003601f168201915b505050505081526020016005820160009054906101000a900473ffffffffffffffffffffffffffffffffffffffff1673ffffffffffffffffffffffffffffffffffffffff1673ffffffffffffffffffffffffffffffffffffffff1681526020016005820160149054906101000a900460ff166002811115610e9057fe5b6002811115610e9b57fe5b815250509050806000015181602001518260400151836060015184608001518560a001518660c001516002811115610ecf57fe5b849450839350829250975097509750975097509750975050919395979092949650565b6060600160008381526020019081526020016000206004018054600181600116156101000203166002900480601f016020809104026020016040519081016040528092919081815260200182805460018160011615610100020316600290048015610f9e5780601f10610f7357610100808354040283529160200191610f9e565b820191906000526020600020905b815481529060010190602001808311610f8157829003601f168201915b50505050509050919050565b6060600260008373ffffffffffffffffffffffffffffffffffffffff1673ffffffffffffffffffffffffffffffffffffffff16815260200190815260200160002080548060200260200160405190810160405280929190818152602001828054801561103557602002820191906000526020600020905b815481526020019060010190808311611021575b50505050509050919050565b6000806000815480929190600101919050555060e06040519081016040528060005481526020018781526020018681526020018581526020018481526020018373ffffffffffffffffffffffffffffffffffffffff168152602001600060028111156110a957fe5b8152506001600080548152602001908152602001600020600082015181600001556020820151816001015560408201518160020190805190602001906110f092919061179b565b50606082015181600301908051906020019061110d92919061179b565b50608082015181600401908051906020019061112a92919061179b565b5060a08201518160050160006101000a81548173ffffffffffffffffffffffffffffffffffffffff021916908373ffffffffffffffffffffffffffffffffffffffff16021790555060c08201518160050160146101000a81548160ff0219169083600281111561119657fe5b0217905550905050600260008373ffffffffffffffffffffffffffffffffffffffff1673ffffffffffffffffffffffffffffffffffffffff1681526020019081526020016000206000549080600181540180825580915050906001820390600052602060002001600090919290919091505550600054905095945050505050565b6060600160008381526020019081526020016000206003018054600181600116156101000203166002900480601f0160208091040260200160405190810160405280929190818152602001828054600181600116156101000203166002900480156112c35780601f10611298576101008083540402835291602001916112c3565b820191906000526020600020905b8154815290600101906020018083116112a657829003601f168201915b50505050509050919050565b60026001600083815260200190815260200160002060050160146101000a81548160ff0219169083600281111561130257fe5b021790555050565b60026020528160005260406000208181548110151561132557fe5b90600052602060002001600091509150505481565b60006001600083815260200190815260200160002060050160009054906101000a900473ffffffffffffffffffffffffffffffffffffffff169050919050565b60005481565b600060016000838152602001908152602001600020600101549050919050565b60006001600083815260200190815260200160002060050160146101000a81548160ff021916908360028111156113d357fe5b021790555050565b600180600083815260200190815260200160002060050160146101000a81548160ff0219169083600281111561140d57fe5b021790555050565b60006001600083815260200190815260200160002060050160149054906101000a900460ff16600281111561144657fe5b9050919050565b6001602052806000526040600020600091509050806000015490806001015490806002018054600181600116156101000203166002900480601f0160208091040260200160405190810160405280929190818152602001828054600181600116156101000203166002900480156115055780601f106114da57610100808354040283529160200191611505565b820191906000526020600020905b8154815290600101906020018083116114e857829003601f168201915b505050505090806003018054600181600116156101000203166002900480601f0160208091040260200160405190810160405280929190818152602001828054600181600116156101000203166002900480156115a35780601f10611578576101008083540402835291602001916115a3565b820191906000526020600020905b81548152906001019060200180831161158657829003601f168201915b505050505090806004018054600181600116156101000203166002900480601f0160208091040260200160405190810160405280929190818152602001828054600181600116156101000203166002900480156116415780601f1061161657610100808354040283529160200191611641565b820191906000526020600020905b81548152906001019060200180831161162457829003601f168201915b5050505050908060050160009054906101000a900473ffffffffffffffffffffffffffffffffffffffff16908060050160149054906101000a900460ff16905087565b6060600160008381526020019081526020016000206002018054600181600116156101000203166002900480601f0160208091040260200160405190810160405280929190818152602001828054600181600116156101000203166002900480156117305780601f1061170557610100808354040283529160200191611730565b820191906000526020600020905b81548152906001019060200180831161171357829003601f168201915b50505050509050919050565b60e0604051908101604052806000815260200160008152602001606081526020016060815260200160608152602001600073ffffffffffffffffffffffffffffffffffffffff1681526020016000600281111561179557fe5b81525090565b828054600181600116156101000203166002900490600052602060002090601f016020900481019282601f106117dc57805160ff191683800117855561180a565b8280016001018555821561180a579182015b828111156118095782518255916020019190600101906117ee565b5b509050611817919061181b565b5090565b61183d91905b80821115611839576000816000905550600101611821565b5090565b9056fea165627a7a72305820ff74e6440cb531d92f63938c9790d95652c7e886170290492b95db54d71022510029",
  "source": "pragma solidity ^0.5.0;\n\n/**\n* @author Karen Suen\n* @title Stores and manages the state of all listings in the marketplace.\n* This is a low level storage contract that provides getters and setters for\n* creating, accessing and modifying listings. Currently, a reference is stored\n* for fetching the listing image from a distributed database due to the expensive\n* cost of storing large data on the blockchain. For optimisation reasons,\n* business logic should be implemented in the client application.\n*/\ncontract MarketStore {\n\n    enum ListingState { AVAILABLE, SOLD, INACTIVE } // {0,1,2}\n\n    struct ItemListing {\n        uint id;\n        uint price;\n        string title;\n        string description;\n        string imageHash;\n        address seller;\n        ListingState state;\n    }\n\n    uint public totalListings;\n    mapping(uint => ItemListing) public listings;\n    mapping(address => uint[]) public allUserListings;\n\n    /**\n    * @dev Constructor initialises marketplace with 0 listings\n    */\n    constructor() public {\n        totalListings = 0;\n    }\n\n    /**\n    * @notice Create a new listing in the marketplace and returns its generated id.\n    * Indexing of listings always starts at 1.\n    * @dev The unique ID of each listing is auto generated using the incremented\n    * total listing count. The list of seller's owned listings are also updated.\n    * @param _price The selling price of the new listing in Wei\n    * @param _title The title of the new listing\n    * @param _desc The reference hash of listing description stored in a distributed database\n    * @param _image The reference hash of listing image stored in a distributed database\n    * @param _seller The seller address that created this listing (owner)\n    */\n    function createListingInStore(\n        uint _price,\n        string memory _title,\n        string memory _desc,\n        string memory _image,\n        address _seller\n    )\n        public\n        returns (uint)\n    {\n        // create listing and store in contract\n        totalListings++;\n        listings[totalListings] = ItemListing(\n          totalListings,\n          _price,\n          _title,\n          _desc,\n          _image,\n          _seller,\n          ListingState.AVAILABLE\n        );\n\n        // update user's owned listings\n        allUserListings[_seller].push(totalListings);\n\n        return totalListings;\n    }\n\n    /**\n    * @notice Disable the given listing by updating its state to INACTIVE (2)\n    * @dev Sold or disabled listings could be activated again (relisted)\n    * @param _id The id of listing to disable\n    */\n    function disableListing(uint _id) public {\n        listings[_id].state = ListingState.INACTIVE;\n    }\n\n    /**\n    * @notice Updates the given listing to SOLD state\n    * @param _id The id of sold listing\n    */\n    function listingSold(uint _id) public {\n        listings[_id].state = ListingState.SOLD;\n    }\n\n    /**\n    * @dev Update the given listing to available state\n    * @param _id The id of listing to make available in marketplace\n    */\n    function listingAvailable(uint _id) public {\n        listings[_id].state = ListingState.AVAILABLE;\n    }\n\n    /**\n    * @notice Returns all information about a listing in the marketplace as a tuple\n    * @dev The listing state enum value is returned as an integer\n    * @param _id The id of listing to return\n    */\n    function getListing(uint _id) public view returns (\n        uint,\n        uint,\n        string memory,\n        string memory,\n        string memory,\n        address,\n        uint\n    )\n    {\n        ItemListing memory listing = listings[_id];\n        return (\n            listing.id,\n            listing.price,\n            listing.title,\n            listing.description,\n            listing.imageHash,\n            listing.seller,\n            // state is returned as integer corresponding to order of defined enum values\n            uint256(listing.state)\n        );\n    }\n\n    /**\n    * @dev Returns a list of all listing id's created by an address (user)\n    * @param _seller The address to retrieve all listing ids for\n    */\n    function getAllSellerListings(address _seller) public view returns (uint[] memory) {\n        return allUserListings[_seller];\n    }\n\n    /**\n    * @dev Returns the selling price of a given listing in Wei (smallest\n    * denomination of Ether)\n    * @param _id The id of listing to retrieve selling price of\n    */\n    function getListingPrice(uint _id) public view returns (uint) {\n      return listings[_id].price;\n    }\n\n    /**\n    * @dev Returns the title of a given listing\n    * @param _id The id of listing to retrieve title of\n    */\n    function getListingTitle(uint _id) public view returns (string memory) {\n      return listings[_id].title;\n    }\n\n    /**\n    * @dev Returns the description reference of a given listing\n    * @param _id The id of listing to retrieve the description of\n    */\n    function getListingDescription(uint _id) public view returns (string memory) {\n      return listings[_id].description;\n    }\n\n    /**\n    * @dev Returns the image reference of a given listing\n    * @param _id The id of listing to retrieve the image reference of\n    */\n    function getListingImage(uint _id) public view returns (string memory) {\n      return listings[_id].imageHash;\n    }\n\n    /**\n    * @dev Returns the seller\n    * @param _id The id of listing to retrieve the state of\n    */\n    function getListingSeller(uint _id) public view returns (address) {\n      return listings[_id].seller;\n    }\n\n    /**\n    * @dev Returns the current state of a listing as an integer\n    * @param _id The id of listing to retrieve the state of\n    */\n    function getListingState(uint _id) public view returns (uint) {\n        return uint256(listings[_id].state);\n    }\n}\n",
  "sourcePath": "/Users/karen/dapps/project-dapp2/contracts/MarketStore.sol",
  "compiler": {
    "name": "solc",
    "version": "0.5.0+commit.1d4f565a.Emscripten.clang"
  },
  "schemaVersion": "3.0.2",
  "updatedAt": "2019-04-23T20:45:56.089Z",
  "devdoc": {
    "author": "Karen Suen",
    "methods": {
      "constructor": {
        "details": "Constructor initialises marketplace with 0 listings"
      },
      "createListingInStore(uint256,string,string,string,address)": {
        "details": "The unique ID of each listing is auto generated using the incremented total listing count. The list of seller's owned listings are also updated.",
        "params": {
          "_desc": "The reference hash of listing description stored in a distributed database",
          "_image": "The reference hash of listing image stored in a distributed database",
          "_price": "The selling price of the new listing in Wei",
          "_seller": "The seller address that created this listing (owner)",
          "_title": "The title of the new listing"
        }
      },
      "disableListing(uint256)": {
        "details": "Sold or disabled listings could be activated again (relisted)",
        "params": {
          "_id": "The id of listing to disable"
        }
      },
      "getAllSellerListings(address)": {
        "details": "Returns a list of all listing id's created by an address (user)",
        "params": {
          "_seller": "The address to retrieve all listing ids for"
        }
      },
      "getListing(uint256)": {
        "details": "The listing state enum value is returned as an integer",
        "params": {
          "_id": "The id of listing to return"
        }
      },
      "getListingDescription(uint256)": {
        "details": "Returns the description reference of a given listing",
        "params": {
          "_id": "The id of listing to retrieve the description of"
        }
      },
      "getListingImage(uint256)": {
        "details": "Returns the image reference of a given listing",
        "params": {
          "_id": "The id of listing to retrieve the image reference of"
        }
      },
      "getListingPrice(uint256)": {
        "details": "Returns the selling price of a given listing in Wei (smallest denomination of Ether)",
        "params": {
          "_id": "The id of listing to retrieve selling price of"
        }
      },
      "getListingSeller(uint256)": {
        "details": "Returns the seller",
        "params": {
          "_id": "The id of listing to retrieve the state of"
        }
      },
      "getListingState(uint256)": {
        "details": "Returns the current state of a listing as an integer",
        "params": {
          "_id": "The id of listing to retrieve the state of"
        }
      },
      "getListingTitle(uint256)": {
        "details": "Returns the title of a given listing",
        "params": {
          "_id": "The id of listing to retrieve title of"
        }
      },
      "listingAvailable(uint256)": {
        "details": "Update the given listing to available state",
        "params": {
          "_id": "The id of listing to make available in marketplace"
        }
      },
      "listingSold(uint256)": {
        "params": {
          "_id": "The id of sold listing"
        }
      }
    },
    "title": "Stores and manages the state of all listings in the marketplace. This is a low level storage contract that provides getters and setters for creating, accessing and modifying listings. Currently, a reference is stored for fetching the listing image from a distributed database due to the expensive cost of storing large data on the blockchain. For optimisation reasons, business logic should be implemented in the client application."
  },
  "userdoc": {
    "methods": {
      "createListingInStore(uint256,string,string,string,address)": {
        "notice": "Create a new listing in the marketplace and returns its generated id. Indexing of listings always starts at 1."
      },
      "disableListing(uint256)": {
        "notice": "Disable the given listing by updating its state to INACTIVE (2)"
      },
      "getListing(uint256)": {
        "notice": "Returns all information about a listing in the marketplace as a tuple"
      },
      "listingSold(uint256)": {
        "notice": "Updates the given listing to SOLD state"
      }
    }
  }
}