{
  "contractName": "MarketStore",
  "abi": [
    {
      "constant": true,
      "inputs": [
        {
          "name": "",
          "type": "address"
        },
        {
          "name": "",
          "type": "uint256"
        }
      ],
      "name": "allUserListings",
      "outputs": [
        {
          "name": "",
          "type": "uint256"
        }
      ],
      "payable": false,
      "stateMutability": "view",
      "type": "function",
      "signature": "0x60207527"
    },
    {
      "constant": true,
      "inputs": [],
      "name": "totalListings",
      "outputs": [
        {
          "name": "",
          "type": "uint256"
        }
      ],
      "payable": false,
      "stateMutability": "view",
      "type": "function",
      "signature": "0xc78b616c"
    },
    {
      "constant": true,
      "inputs": [
        {
          "name": "",
          "type": "uint256"
        }
      ],
      "name": "listings",
      "outputs": [
        {
          "name": "id",
          "type": "uint256"
        },
        {
          "name": "price",
          "type": "uint256"
        },
        {
          "name": "title",
          "type": "string"
        },
        {
          "name": "description",
          "type": "string"
        },
        {
          "name": "seller",
          "type": "address"
        },
        {
          "name": "state",
          "type": "uint8"
        }
      ],
      "payable": false,
      "stateMutability": "view",
      "type": "function",
      "signature": "0xde74e57b"
    },
    {
      "inputs": [],
      "payable": false,
      "stateMutability": "nonpayable",
      "type": "constructor",
      "signature": "constructor"
    },
    {
      "constant": false,
      "inputs": [
        {
          "name": "_price",
          "type": "uint256"
        },
        {
          "name": "_title",
          "type": "string"
        },
        {
          "name": "_desc",
          "type": "string"
        },
        {
          "name": "_seller",
          "type": "address"
        }
      ],
      "name": "createListingInStore",
      "outputs": [
        {
          "name": "",
          "type": "uint256"
        }
      ],
      "payable": false,
      "stateMutability": "nonpayable",
      "type": "function",
      "signature": "0x5a6ef4a0"
    },
    {
      "constant": true,
      "inputs": [
        {
          "name": "_id",
          "type": "uint256"
        }
      ],
      "name": "getListing",
      "outputs": [
        {
          "name": "",
          "type": "uint256"
        },
        {
          "name": "",
          "type": "uint256"
        },
        {
          "name": "",
          "type": "string"
        },
        {
          "name": "",
          "type": "string"
        },
        {
          "name": "",
          "type": "address"
        },
        {
          "name": "",
          "type": "uint256"
        }
      ],
      "payable": false,
      "stateMutability": "view",
      "type": "function",
      "signature": "0x107a274a"
    },
    {
      "constant": true,
      "inputs": [
        {
          "name": "_seller",
          "type": "address"
        }
      ],
      "name": "getAllSellerListings",
      "outputs": [
        {
          "name": "",
          "type": "uint256[]"
        }
      ],
      "payable": false,
      "stateMutability": "view",
      "type": "function",
      "signature": "0x1b59292e"
    },
    {
      "constant": false,
      "inputs": [
        {
          "name": "_id",
          "type": "uint256"
        }
      ],
      "name": "disableListing",
      "outputs": [],
      "payable": false,
      "stateMutability": "nonpayable",
      "type": "function",
      "signature": "0x5c3fec1e"
    },
    {
      "constant": false,
      "inputs": [
        {
          "name": "_id",
          "type": "uint256"
        }
      ],
      "name": "listingSold",
      "outputs": [],
      "payable": false,
      "stateMutability": "nonpayable",
      "type": "function",
      "signature": "0xd9def3c4"
    },
    {
      "constant": false,
      "inputs": [
        {
          "name": "_id",
          "type": "uint256"
        }
      ],
      "name": "listingAvailable",
      "outputs": [],
      "payable": false,
      "stateMutability": "nonpayable",
      "type": "function",
      "signature": "0xd80b1f55"
    }
  ],
  "bytecode": "0x608060405234801561001057600080fd5b5060008081905550611127806100276000396000f3fe608060405260043610610099576000357c0100000000000000000000000000000000000000000000000000000000900463ffffffff168063107a274a1461009e5780631b59292e146102065780635a6ef4a0146102ac5780635c3fec1e146104495780636020752714610484578063c78b616c146104f3578063d80b1f551461051e578063d9def3c414610559578063de74e57b14610594575b600080fd5b3480156100aa57600080fd5b506100d7600480360360208110156100c157600080fd5b810190808035906020019092919050505061070a565b6040518087815260200186815260200180602001806020018573ffffffffffffffffffffffffffffffffffffffff1673ffffffffffffffffffffffffffffffffffffffff168152602001848152602001838103835287818151815260200191508051906020019080838360005b8381101561015f578082015181840152602081019050610144565b50505050905090810190601f16801561018c5780820380516001836020036101000a031916815260200191505b50838103825286818151815260200191508051906020019080838360005b838110156101c55780820151818401526020810190506101aa565b50505050905090810190601f1680156101f25780820380516001836020036101000a031916815260200191505b509850505050505050505060405180910390f35b34801561021257600080fd5b506102556004803603602081101561022957600080fd5b81019080803573ffffffffffffffffffffffffffffffffffffffff16906020019092919050505061095c565b6040518080602001828103825283818151815260200191508051906020019060200280838360005b8381101561029857808201518184015260208101905061027d565b505050509050019250505060405180910390f35b3480156102b857600080fd5b50610433600480360360808110156102cf57600080fd5b8101908080359060200190929190803590602001906401000000008111156102f657600080fd5b82018360208201111561030857600080fd5b8035906020019184600183028401116401000000008311171561032a57600080fd5b91908080601f016020809104026020016040519081016040528093929190818152602001838380828437600081840152601f19601f8201169050808301925050505050505091929192908035906020019064010000000081111561038d57600080fd5b82018360208201111561039f57600080fd5b803590602001918460018302840111640100000000831117156103c157600080fd5b91908080601f016020809104026020016040519081016040528093929190818152602001838380828437600081840152601f19601f820116905080830192505050505050509192919290803573ffffffffffffffffffffffffffffffffffffffff1690602001909291905050506109f3565b6040518082815260200191505060405180910390f35b34801561045557600080fd5b506104826004803603602081101561046c57600080fd5b8101908080359060200190929190505050610ba5565b005b34801561049057600080fd5b506104dd600480360360408110156104a757600080fd5b81019080803573ffffffffffffffffffffffffffffffffffffffff16906020019092919080359060200190929190505050610dba565b6040518082815260200191505060405180910390f35b3480156104ff57600080fd5b50610508610dea565b6040518082815260200191505060405180910390f35b34801561052a57600080fd5b506105576004803603602081101561054157600080fd5b8101908080359060200190929190505050610df0565b005b34801561056557600080fd5b506105926004803603602081101561057c57600080fd5b8101908080359060200190929190505050610e2b565b005b3480156105a057600080fd5b506105cd600480360360208110156105b757600080fd5b8101908080359060200190929190505050610e65565b6040518087815260200186815260200180602001806020018573ffffffffffffffffffffffffffffffffffffffff1673ffffffffffffffffffffffffffffffffffffffff16815260200184600281111561062357fe5b60ff168152602001838103835287818151815260200191508051906020019080838360005b83811015610663578082015181840152602081019050610648565b50505050905090810190601f1680156106905780820380516001836020036101000a031916815260200191505b50838103825286818151815260200191508051906020019080838360005b838110156106c95780820151818401526020810190506106ae565b50505050905090810190601f1680156106f65780820380516001836020036101000a031916815260200191505b509850505050505050505060405180910390f35b60008060608060008061071b610ffe565b6001600089815260200190815260200160002060c060405190810160405290816000820154815260200160018201548152602001600282018054600181600116156101000203166002900480601f0160208091040260200160405190810160405280929190818152602001828054600181600116156101000203166002900480156107e75780601f106107bc576101008083540402835291602001916107e7565b820191906000526020600020905b8154815290600101906020018083116107ca57829003601f168201915b50505050508152602001600382018054600181600116156101000203166002900480601f0160208091040260200160405190810160405280929190818152602001828054600181600116156101000203166002900480156108895780601f1061085e57610100808354040283529160200191610889565b820191906000526020600020905b81548152906001019060200180831161086c57829003601f168201915b505050505081526020016004820160009054906101000a900473ffffffffffffffffffffffffffffffffffffffff1673ffffffffffffffffffffffffffffffffffffffff1673ffffffffffffffffffffffffffffffffffffffff1681526020016004820160149054906101000a900460ff16600281111561090657fe5b600281111561091157fe5b815250509050806000015181602001518260400151836060015184608001518560a00151600281111561094057fe5b8393508292509650965096509650965096505091939550919395565b6060600260008373ffffffffffffffffffffffffffffffffffffffff1673ffffffffffffffffffffffffffffffffffffffff1681526020019081526020016000208054806020026020016040519081016040528092919081815260200182805480156109e757602002820191906000526020600020905b8154815260200190600101908083116109d3575b50505050509050919050565b6000806000815480929190600101919050555060c06040519081016040528060005481526020018681526020018581526020018481526020018373ffffffffffffffffffffffffffffffffffffffff16815260200160006002811115610a5557fe5b815250600160008054815260200190815260200160002060008201518160000155602082015181600101556040820151816002019080519060200190610a9c929190611056565b506060820151816003019080519060200190610ab9929190611056565b5060808201518160040160006101000a81548173ffffffffffffffffffffffffffffffffffffffff021916908373ffffffffffffffffffffffffffffffffffffffff16021790555060a08201518160040160146101000a81548160ff02191690836002811115610b2557fe5b0217905550905050600260008373ffffffffffffffffffffffffffffffffffffffff1673ffffffffffffffffffffffffffffffffffffffff16815260200190815260200160002060005490806001815401808255809150509060018203906000526020600020016000909192909190915055506000549050949350505050565b806001600082815260200190815260200160002060040160009054906101000a900473ffffffffffffffffffffffffffffffffffffffff1673ffffffffffffffffffffffffffffffffffffffff163373ffffffffffffffffffffffffffffffffffffffff16141515610ca5576040517f08c379a000000000000000000000000000000000000000000000000000000000815260040180806020018281038252602e8152602001807f4f6e6c79207468652073656c6c6572206f662074686973206c697374696e672081526020017f63616e2064697361626c6520697400000000000000000000000000000000000081525060400191505060405180910390fd5b8160006002811115610cb357fe5b6001600083815260200190815260200160002060040160149054906101000a900460ff166002811115610ce257fe5b141515610d7d576040517f08c379a00000000000000000000000000000000000000000000000000000000081526004018080602001828103825260338152602001807f546865206c697374696e672063616e6e6f742062652064697361626c6564206481526020017f7572696e672061207472616e73616374696f6e0000000000000000000000000081525060400191505060405180910390fd5b60026001600085815260200190815260200160002060040160146101000a81548160ff02191690836002811115610db057fe5b0217905550505050565b600260205281600052604060002081815481101515610dd557fe5b90600052602060002001600091509150505481565b60005481565b60006001600083815260200190815260200160002060040160146101000a81548160ff02191690836002811115610e2357fe5b021790555050565b600180600083815260200190815260200160002060040160146101000a81548160ff02191690836002811115610e5d57fe5b021790555050565b6001602052806000526040600020600091509050806000015490806001015490806002018054600181600116156101000203166002900480601f016020809104026020016040519081016040528092919081815260200182805460018160011615610100020316600290048015610f1d5780601f10610ef257610100808354040283529160200191610f1d565b820191906000526020600020905b815481529060010190602001808311610f0057829003601f168201915b505050505090806003018054600181600116156101000203166002900480601f016020809104026020016040519081016040528092919081815260200182805460018160011615610100020316600290048015610fbb5780601f10610f9057610100808354040283529160200191610fbb565b820191906000526020600020905b815481529060010190602001808311610f9e57829003601f168201915b5050505050908060040160009054906101000a900473ffffffffffffffffffffffffffffffffffffffff16908060040160149054906101000a900460ff16905086565b60c06040519081016040528060008152602001600081526020016060815260200160608152602001600073ffffffffffffffffffffffffffffffffffffffff1681526020016000600281111561105057fe5b81525090565b828054600181600116156101000203166002900490600052602060002090601f016020900481019282601f1061109757805160ff19168380011785556110c5565b828001600101855582156110c5579182015b828111156110c45782518255916020019190600101906110a9565b5b5090506110d291906110d6565b5090565b6110f891905b808211156110f45760008160009055506001016110dc565b5090565b9056fea165627a7a72305820eea0de764ca7b588f4c3630d009a3d264fcfd7b5514385d5526068811844cde80029",
  "source": "pragma solidity ^0.5.0;\n\ncontract MarketStore {\n\n  enum ListingState { AVAILABLE, SOLD, INACTIVE } // {0,1,2}\n\n  struct ItemListing {\n    uint id;\n    uint price;\n    string title;\n    string description;\n    address seller;\n    ListingState state;\n  }\n\n  uint public totalListings;\n  mapping(uint => ItemListing) public listings;\n  mapping(address => uint[]) public allUserListings;\n\n  modifier sellerOnly(uint listingId) {\n    require(msg.sender == listings[listingId].seller,\n            \"Only the seller of this listing can disable it\");\n    _;\n  }\n\n  modifier inAvailableState(uint listingId) {\n    require(listings[listingId].state == ListingState.AVAILABLE,\n      \"The listing cannot be disabled during a transaction\");\n    _;\n  }\n\n  constructor() public {\n    totalListings = 0;\n  }\n\n  // creates and stores the new listing, returning the listing id\n  // auto generate listing id using total listing count\n  function createListingInStore(uint _price, string memory _title, string memory _desc, address _seller) public\n    returns (uint) {\n    totalListings++;\n    listings[totalListings] = ItemListing(totalListings, _price, _title, _desc, _seller, ListingState.AVAILABLE);\n    // update user's owned listings\n    allUserListings[_seller].push(totalListings);\n\n    return totalListings;\n  }\n\n  // method for safely retrieving a listing from store\n  function getListing(uint _id) public view returns (uint, uint, string memory, string memory, address, uint) {\n    ItemListing memory listing = listings[_id];\n    return (listing.id,\n            listing.price,\n            listing.title,\n            listing.description,\n            listing.seller,\n            uint256(listing.state)); // enum state is returned as integer\n  }\n\n  // method for safetly retrieving list of listings owned by an account\n  function getAllSellerListings(address _seller) public view returns (uint[] memory) {\n    return allUserListings[_seller];\n  }\n\n  // disable listing by updating its listing state\n  function disableListing(uint _id) public sellerOnly(_id) inAvailableState(_id) {\n   listings[_id].state = ListingState.INACTIVE;\n  }\n\n  // change listing state to sold\n  function listingSold(uint _id) public {\n    listings[_id].state = ListingState.SOLD;\n  }\n  // change listing state to available\n  function listingAvailable(uint _id) public {\n    listings[_id].state = ListingState.AVAILABLE;\n  }\n}\n",
  "sourcePath": "/Users/karen/dapps/project-dapp2/contracts/MarketStore.sol",
  "compiler": {
    "name": "solc",
    "version": "0.5.0+commit.1d4f565a.Emscripten.clang"
  },
  "schemaVersion": "3.0.2",
  "updatedAt": "2019-04-02T22:50:41.457Z",
  "devdoc": {
    "methods": {}
  },
  "userdoc": {
    "methods": {}
  }
}