{
  "contractName": "Market",
  "abi": [
    {
      "inputs": [
        {
          "name": "_marketStore",
          "type": "address"
        },
        {
          "name": "_escrow",
          "type": "address"
        }
      ],
      "payable": false,
      "stateMutability": "nonpayable",
      "type": "constructor",
      "signature": "constructor"
    },
    {
      "anonymous": false,
      "inputs": [
        {
          "indexed": false,
          "name": "totalListings",
          "type": "uint256"
        }
      ],
      "name": "TotalListings",
      "type": "event",
      "signature": "0x1e60e1617678d33e066245bc4b7b85c75421b5e101d9946b9beebac2800707bb"
    },
    {
      "anonymous": false,
      "inputs": [
        {
          "indexed": false,
          "name": "id",
          "type": "uint256"
        }
      ],
      "name": "ListingCreated",
      "type": "event",
      "signature": "0xe80eb3aeb9f2d3e4d0a9895619edb1761066e57cd2761c5fc47be8d6eebb6038"
    },
    {
      "anonymous": false,
      "inputs": [
        {
          "indexed": false,
          "name": "id",
          "type": "uint256"
        },
        {
          "indexed": false,
          "name": "price",
          "type": "uint256"
        },
        {
          "indexed": false,
          "name": "title",
          "type": "string"
        },
        {
          "indexed": false,
          "name": "description",
          "type": "string"
        },
        {
          "indexed": false,
          "name": "seller",
          "type": "address"
        },
        {
          "indexed": false,
          "name": "state",
          "type": "uint256"
        }
      ],
      "name": "Listing",
      "type": "event",
      "signature": "0x56ef7d9021a17750aa0f467656c28462ed317ea7a3e0f39302807467480f0d5f"
    },
    {
      "constant": false,
      "inputs": [
        {
          "name": "_price",
          "type": "uint256"
        },
        {
          "name": "_title",
          "type": "string"
        },
        {
          "name": "_desc",
          "type": "string"
        },
        {
          "name": "_image",
          "type": "string"
        }
      ],
      "name": "createListing",
      "outputs": [],
      "payable": false,
      "stateMutability": "nonpayable",
      "type": "function",
      "signature": "0x5ff03120"
    },
    {
      "constant": false,
      "inputs": [
        {
          "name": "_id",
          "type": "uint256"
        }
      ],
      "name": "retrieveListing",
      "outputs": [],
      "payable": false,
      "stateMutability": "nonpayable",
      "type": "function",
      "signature": "0x1dbd4d9d"
    },
    {
      "constant": false,
      "inputs": [
        {
          "name": "_listingId",
          "type": "uint256"
        }
      ],
      "name": "buyListing",
      "outputs": [],
      "payable": true,
      "stateMutability": "payable",
      "type": "function",
      "signature": "0x4884f459"
    },
    {
      "constant": false,
      "inputs": [
        {
          "name": "_listingId",
          "type": "uint256"
        }
      ],
      "name": "confirmItemReceived",
      "outputs": [],
      "payable": false,
      "stateMutability": "nonpayable",
      "type": "function",
      "signature": "0x65e3966a"
    },
    {
      "constant": false,
      "inputs": [],
      "name": "getTotalListings",
      "outputs": [],
      "payable": false,
      "stateMutability": "nonpayable",
      "type": "function",
      "signature": "0xfbf30c35"
    }
  ],
  "bytecode": "0x608060405234801561001057600080fd5b50604051604080610de38339810180604052604081101561003057600080fd5b810190808051906020019092919080519060200190929190505050816000806101000a81548173ffffffffffffffffffffffffffffffffffffffff021916908373ffffffffffffffffffffffffffffffffffffffff16021790555080600160006101000a81548173ffffffffffffffffffffffffffffffffffffffff021916908373ffffffffffffffffffffffffffffffffffffffff1602179055505050610d06806100dd6000396000f3fe60806040526004361061006d576000357c0100000000000000000000000000000000000000000000000000000000900463ffffffff1680631dbd4d9d146100725780634884f459146100ad5780635ff03120146100db57806365e3966a146102db578063fbf30c3514610316575b600080fd5b34801561007e57600080fd5b506100ab6004803603602081101561009557600080fd5b810190808035906020019092919050505061032d565b005b6100d9600480360360208110156100c357600080fd5b810190808035906020019092919050505061069b565b005b3480156100e757600080fd5b506102d9600480360360808110156100fe57600080fd5b81019080803590602001909291908035906020019064010000000081111561012557600080fd5b82018360208201111561013757600080fd5b8035906020019184600183028401116401000000008311171561015957600080fd5b91908080601f016020809104026020016040519081016040528093929190818152602001838380828437600081840152601f19601f820116905080830192505050505050509192919290803590602001906401000000008111156101bc57600080fd5b8201836020820111156101ce57600080fd5b803590602001918460018302840111640100000000831117156101f057600080fd5b91908080601f016020809104026020016040519081016040528093929190818152602001838380828437600081840152601f19601f8201169050808301925050505050505091929192908035906020019064010000000081111561025357600080fd5b82018360208201111561026557600080fd5b8035906020019184600183028401116401000000008311171561028757600080fd5b91908080601f016020809104026020016040519081016040528093929190818152602001838380828437600081840152601f19601f820116905080830192505050505050509192919290505050610953565b005b3480156102e757600080fd5b50610314600480360360208110156102fe57600080fd5b8101908080359060200190929190505050610bdb565b005b34801561032257600080fd5b5061032b610bde565b005b60008060608060606000806000809054906101000a900473ffffffffffffffffffffffffffffffffffffffff1673ffffffffffffffffffffffffffffffffffffffff1663107a274a896040518263ffffffff167c01000000000000000000000000000000000000000000000000000000000281526004018082815260200191505060006040518083038186803b1580156103c657600080fd5b505afa1580156103da573d6000803e3d6000fd5b505050506040513d6000823e3d601f19601f8201168201806040525060e081101561040457600080fd5b810190808051906020019092919080519060200190929190805164010000000081111561043057600080fd5b8281019050602081018481111561044657600080fd5b815185600182028301116401000000008211171561046357600080fd5b5050929190602001805164010000000081111561047f57600080fd5b8281019050602081018481111561049557600080fd5b81518560018202830111640100000000821117156104b257600080fd5b505092919060200180516401000000008111156104ce57600080fd5b828101905060208101848111156104e457600080fd5b815185600182028301116401000000008211171561050157600080fd5b50509291906020018051906020019092919080519060200190929190505050809750819850829950839a50849b50859c50869d50505050505050507f56ef7d9021a17750aa0f467656c28462ed317ea7a3e0f39302807467480f0d5f8787878786866040518087815260200186815260200180602001806020018573ffffffffffffffffffffffffffffffffffffffff1673ffffffffffffffffffffffffffffffffffffffff168152602001848152602001838103835287818151815260200191508051906020019080838360005b838110156105eb5780820151818401526020810190506105d0565b50505050905090810190601f1680156106185780820380516001836020036101000a031916815260200191505b50838103825286818151815260200191508051906020019080838360005b83811015610651578082015181840152602081019050610636565b50505050905090810190601f16801561067e5780820380516001836020036101000a031916815260200191505b509850505050505050505060405180910390a15050505050505050565b60008060009054906101000a900473ffffffffffffffffffffffffffffffffffffffff1673ffffffffffffffffffffffffffffffffffffffff1663d6077fbf836040518263ffffffff167c01000000000000000000000000000000000000000000000000000000000281526004018082815260200191505060206040518083038186803b15801561072b57600080fd5b505afa15801561073f573d6000803e3d6000fd5b505050506040513d602081101561075557600080fd5b8101908080519060200190929190505050905060008060009054906101000a900473ffffffffffffffffffffffffffffffffffffffff1673ffffffffffffffffffffffffffffffffffffffff1663b26e9fc4846040518263ffffffff167c01000000000000000000000000000000000000000000000000000000000281526004018082815260200191505060206040518083038186803b1580156107f857600080fd5b505afa15801561080c573d6000803e3d6000fd5b505050506040513d602081101561082257600080fd5b81019080805190602001909291905050509050600160009054906101000a900473ffffffffffffffffffffffffffffffffffffffff1673ffffffffffffffffffffffffffffffffffffffff1663b234c49d843384866040518563ffffffff167c0100000000000000000000000000000000000000000000000000000000028152600401808581526020018473ffffffffffffffffffffffffffffffffffffffff1673ffffffffffffffffffffffffffffffffffffffff1681526020018373ffffffffffffffffffffffffffffffffffffffff1673ffffffffffffffffffffffffffffffffffffffff168152602001828152602001945050505050600060405180830381600087803b15801561093657600080fd5b505af115801561094a573d6000803e3d6000fd5b50505050505050565b60008060009054906101000a900473ffffffffffffffffffffffffffffffffffffffff1673ffffffffffffffffffffffffffffffffffffffff1663251c5aa386868686336040518663ffffffff167c0100000000000000000000000000000000000000000000000000000000028152600401808681526020018060200180602001806020018573ffffffffffffffffffffffffffffffffffffffff1673ffffffffffffffffffffffffffffffffffffffff168152602001848103845288818151815260200191508051906020019080838360005b83811015610a42578082015181840152602081019050610a27565b50505050905090810190601f168015610a6f5780820380516001836020036101000a031916815260200191505b50848103835287818151815260200191508051906020019080838360005b83811015610aa8578082015181840152602081019050610a8d565b50505050905090810190601f168015610ad55780820380516001836020036101000a031916815260200191505b50848103825286818151815260200191508051906020019080838360005b83811015610b0e578082015181840152602081019050610af3565b50505050905090810190601f168015610b3b5780820380516001836020036101000a031916815260200191505b5098505050505050505050602060405180830381600087803b158015610b6057600080fd5b505af1158015610b74573d6000803e3d6000fd5b505050506040513d6020811015610b8a57600080fd5b810190808051906020019092919050505090507fe80eb3aeb9f2d3e4d0a9895619edb1761066e57cd2761c5fc47be8d6eebb6038816040518082815260200191505060405180910390a15050505050565b50565b60008060009054906101000a900473ffffffffffffffffffffffffffffffffffffffff1673ffffffffffffffffffffffffffffffffffffffff1663c78b616c6040518163ffffffff167c010000000000000000000000000000000000000000000000000000000002815260040160206040518083038186803b158015610c6357600080fd5b505afa158015610c77573d6000803e3d6000fd5b505050506040513d6020811015610c8d57600080fd5b810190808051906020019092919050505090507f1e60e1617678d33e066245bc4b7b85c75421b5e101d9946b9beebac2800707bb816040518082815260200191505060405180910390a15056fea165627a7a72305820cb270e746a51e0f779f8ad2aa33d69acf09558c5c4a04d3a78e67350b8fded120029",
  "source": "pragma solidity ^0.5.0;\n\nimport \"./MarketStore.sol\";\nimport \"./Escrow.sol\";\n\n/**\n* @author Karen Suen\n* @title A proxy contract for interacting with low-level contracts\n* @notice All client interactions should use this contract to modify the state\n* of the marketplace (create or modify listings and transactions)\n* @dev Basic security are implemented here to prevent unauthorised parties from\n* tampering with listings and transactions.\n* In practice, this proxy contract should have sole ownership of the low level\n* contracts to ensure only this contract can invoke their methods by manually\n* implementing ownership checks or using the OpenZeppelin Ownable contract.\n* To reduce gas cost, business logic is implemented in the client app.\n*/\ncontract Market {\n\n  MarketStore marketStore;\n  Escrow escrow;\n\n  event TotalListings(uint totalListings);\n\n  event ListingCreated(uint id);\n\n  event Listing(\n    uint id,\n    uint price,\n    string title,\n    string description,\n    address seller,\n    uint state\n  );\n\n  /**\n  * @dev Constructor initialises instances of low-level storage contracts for\n  * this proxy contract.\n  */\n  constructor(address _marketStore, address _escrow) public {\n    marketStore = MarketStore(_marketStore);\n    escrow = Escrow(_escrow);\n  }\n\n  /**\n  * @dev Create a new listing in the marketplace and notifies client with the\n  * new listing id through event. Sender of this function is assumed to be the\n  * seller of the listing.\n  * @param _price The selling price of listing\n  * @param _title The string title of the listing and item for sale\n  * @param _desc The string description of the listing\n  */\n  function createListing(\n    uint _price,\n    string memory _title,\n    string memory _desc,\n    string memory _image\n  )\n    public\n  {\n    uint listingId = marketStore.createListingInStore(_price, _title, _desc, _image, msg.sender);\n\n    emit ListingCreated(listingId);\n  }\n\n  /**\n  * @dev Returns all information about a listing through through an event.\n  * @param _id The id of listing to retrieve\n  */\n  function retrieveListing(uint _id) public {\n    uint listingId;\n    uint price;\n    string memory title;\n    string memory desc;\n    string memory image;\n    address seller;\n    uint state;\n    (listingId, price, title, desc, image, seller, state) = marketStore.getListing(_id);\n    emit Listing(listingId, price, title, desc, seller, state);\n  }\n\n  /**\n  * @dev Sender of this function purchases the given listing and sends the\n  * correct amount of funds to be held in escrow. This function assumes the\n  * correct amount of funds are sent and the listing exists.\n  * @param _listingId The listing id to purchase with funds\n  */\n  function buyListing(uint _listingId) public payable {\n    uint price = marketStore.getListingPrice(_listingId);\n    address seller = marketStore.getListingSeller(_listingId);\n    // start transaction\n    escrow.startTransaction(_listingId, msg.sender, seller, price);\n    // send buyer funds to transaction\n    //address payable escrow = address(uint160(getEscrowAddress()));\n    //escrow.transfer(msg.value);\n\n    //_listingSold(_listingId);\n  }\n\n  /**\n  * @dev Updates a transaction to confirmed status, triggering release of\n  * buyer's purchase funds to the seller\n  * @param _listingId The id of listing to update\n  */\n  function confirmItemReceived(uint _listingId) public {\n    // check listing exists\n    // confirm transaction item received and release funds to buyer\n  }\n\n  function getTotalListings() public {\n    uint total = marketStore.totalListings();\n    emit TotalListings(total);\n  }\n\n  // update listing state to sold\n  function _listingSold(uint _id) private {\n    marketStore.listingSold(_id);\n  }\n\n\n}\n",
  "sourcePath": "/Users/karen/dapps/project-dapp2/contracts/Market.sol",
  "compiler": {
    "name": "solc",
    "version": "0.5.0+commit.1d4f565a.Emscripten.clang"
  },
  "schemaVersion": "3.0.2",
  "updatedAt": "2019-04-13T21:23:18.294Z",
  "devdoc": {
    "author": "Karen Suen",
    "details": "Basic security are implemented here to prevent unauthorised parties from tampering with listings and transactions. In practice, this proxy contract should have sole ownership of the low level contracts to ensure only this contract can invoke their methods by manually implementing ownership checks or using the OpenZeppelin Ownable contract. To reduce gas cost, business logic is implemented in the client app.",
    "methods": {
      "buyListing(uint256)": {
        "details": "Sender of this function purchases the given listing and sends the correct amount of funds to be held in escrow. This function assumes the correct amount of funds are sent and the listing exists.",
        "params": {
          "_listingId": "The listing id to purchase with funds"
        }
      },
      "confirmItemReceived(uint256)": {
        "details": "Updates a transaction to confirmed status, triggering release of buyer's purchase funds to the seller",
        "params": {
          "_listingId": "The id of listing to update"
        }
      },
      "constructor": {
        "details": "Constructor initialises instances of low-level storage contracts for this proxy contract."
      },
      "createListing(uint256,string,string,string)": {
        "details": "Create a new listing in the marketplace and notifies client with the new listing id through event. Sender of this function is assumed to be the seller of the listing.",
        "params": {
          "_desc": "The string description of the listing",
          "_price": "The selling price of listing",
          "_title": "The string title of the listing and item for sale"
        }
      },
      "retrieveListing(uint256)": {
        "details": "Returns all information about a listing through through an event.",
        "params": {
          "_id": "The id of listing to retrieve"
        }
      }
    },
    "title": "A proxy contract for interacting with low-level contracts"
  },
  "userdoc": {
    "methods": {},
    "notice": "All client interactions should use this contract to modify the state of the marketplace (create or modify listings and transactions)"
  }
}